:100000000C94870A0C94A40A0C94A40A0C94A40AD5
:100010000C94A40A0C94A40A0C94A40A0C94A40AA8
:100020000C94A40A0C94A40A0C94A9150C94241BF7
:100030000C94C5290C94A40A0C94A40A0C94A40A48
:100040000C94A40A0C94A40A0C94A40A0C94A40A78
:100050000C94A40A0C9482160C94A40A0C94A40A7E
:100060000C94A40A0C94A40A0C94A40A0C94A40A58
:100070000C94A40A0C94A40A0C94A40A0C94A40A48
:100080000C94A40A0C94A40A0C94A40A0C94A40A38
:100090000C94A40A0C94A40A0C94A40A0C94A40A28
:1000A0000C94A40A0C94A40A0C94A40A0000000066
:1000B00000000000000000000000000000000080C0
:1000C000800000008080000000C020A020C0000050
:1000D0008040404080000000000000008080000060
:1000E0000080800000000000000000000000000010
:1000F0000000000000000000000000000000000000
:1001000000000000001E214047C8C8C84740219E8B
:1001100040217E007E111010137C027C13101020F1
:1001200020409E214047C8C8C84740211E0000000B
:1001300000000000000000000000000000000000BF
:1001400000000000000000000000000000000000AF
:10015000000304090A0AFEE1E0A0E0E0105050505C
:1001600010E0E0E0A0A0E0A0E0EAEBFA0A0A09044F
:10017000030000000000000000000000000000007C
:10018000000000000000000000000000000000006F
:100190000000000000000000000000000000070F49
:1001A00015151D0507070707070705050505050DB3
:1001B00015171F03000000000000000000000000F1
:1001C000000000000000000000000000000000002F
:1001D000000000000000000000000000000000809F
:1001E00080000000808000000080404040800000CF
:1001F000804040408000000000000000000000003F
:1002000000000000000000000000000000000000EE
:1002100000000000000000000000000000000000DE
:1002200000000000001E214047C8C8C84740219E6A
:1002300040237C017C131010137C017C13101020D0
:10024000E010083840404040404040380810E0008E
:10025000000000000000000000000000000000009E
:10026000000000000000000000000000000000008E
:10027000000304090A0AFEE1E0A0E0E0105050503B
:1002800010E0E0E0A0A0E0A0E0F7F6F616161616E3
:100290000E02020202010000000000000000000047
:1002A000000000000000000000000000000000004E
:1002B0000000000000000000000000000000070F28
:1002C00015151D0507070707070705050505050D92
:1002D00015171F03000000000000000000000000D0
:1002E000000000000000000000000000000000000E
:1002F00000000000000000000000000000000000FE
:10030000000000000000000000008080800000006D
:10031000804040408000000000000000000000001D
:1003200000000000000000000000000000000000CD
:1003300000000000000000000000000000000000BD
:1003400000000000003C42818F9090908F8142BC61
:100350004027780278171010137C017C13101020AE
:100360002040BC42818F9090908F81423C000000E1
:10037000000000000000000000000000000000007D
:10038000000000000000000000000000000000006D
:10039000000305090A0AFEE1E0A0E0E01050505019
:1003A00010E0E0E0A0A0E0A0E0EAEBFA0A0A09050C
:1003B000030000000000000000000000000000003A
:1003C000000000000000000000000000000000002D
:1003D0000000000000000000000000000000030F0B
:1003E00015151D0507070707070705050505050D71
:1003F00015171F03000000000000000000000000AF
:1004000000000000000000000000000000000000EC
:1004100000000000000000000000000000804020FC
:10042000E0000000E020408000E0105010E00000FC
:10043000E0105010E00000000000804020E00000CC
:1004400000E02040800000000000000000000000EC
:10045000000000000000000000000000000000009C
:10046000000000000007081011F2327291908867B6
:1004700010081F001F040404041F001F04040408C4
:100480000890E78890917232F2111008070000007E
:10049000000000000000000000000000000000005C
:1004A000000000000000000000000000000000004C
:1004B000000001020202FFF878687878C4D4D4D42E
:1004C000C4F878786868786878FAFAFE020202015F
:1004D000000000000000000000000000000000001C
:1004E000000000000000000000000000000000000C
:1004F00000000000000000000000000000000103F8
:10050000040A0B0F01010101010101010101030EA8
:100510000A0B0701000000000000000000000000BE
:1005200000000000000000000000000000000000CB
:1005300000000000000000000000000000008040FB
:10054000C0000000C0408000007088288870000053
:10055000C0206020C00000000000008040C00000FB
:1005600000C040800000000000000000000000000B
:10057000000000000000000000000000000000007B
:1005800000000000000F102023E46464A3A0D03F0B
:1005900008040F000F020202030E000E0302020401
:1005A0000488FF90A0A36464E42320100F000000DF
:1005B000000000000000000000000000000000003B
:1005C000000000000000000000000000000000002B
:1005D0000000010202027FFC3CB4BCBCE2EAEAEA91
:1005E000E2FCBCBCB4B4BCB4BCFEFE7E02020201A0
:1005F00000000000000000000000000000000000FB
:1006000000000000000000000000000000000000EA
:1006100000000000000000000000000000000000DA
:1006200001010202030000000000000000030202BA
:1006300001010000000000000000000000000000B8
:1006400000000000000000000000000000000000AA
:10065000000000000000000000000000000000009A
:1006600000000000000000000080404040800000CA
:1006700000808080000000000000000000000000FA
:10068000000000000000000000000000000000006A
:10069000000000000000000000000000000000005A
:1006A00000000000003C42818F9090908F8142BCFE
:1006B00040237C017C13101017780278171010204B
:1006C0002040BC42818F9090908F81423C0000007E
:1006D000000000000000000000000000000000001A
:1006E000000000000000000000000000000000000A
:1006F000000305090A0AFEE1E0A0E0E010505050B6
:1007000010E0E0E0A0A0E0A0E0EAEBFA0A0A0905A8
:1007100003000000000000000000000000000000D6
:1007200000000000000000000000000000000000C9
:1007300000000000000000000000000000000307AF
:100740000D15151D07070707070705050505050D05
:1007500015171F0700000000000000000000000047
:100760000000000000000000000000000000000089
:100770000000000000000000000000000080402099
:10078000E0000000E020408000E0105010E0000099
:10079000E0105010E00000000000804020E0000069
:1007A00000E0204080000000000000000000000089
:1007B0000000000000000000000000000000000039
:1007C000000000000007081011F232729190886753
:1007D00010081F001F040404041F001F0404040861
:1007E0000890E78890917232F2111008070000001B
:1007F00000000000000000000000000000000000F9
:1008000000000000000000000000000000000000E8
:10081000000001020202FF7878687878C4D4D4D44A
:10082000C4F878786868786878FAFAFE02020201FB
:1008300000000000000000000000000000000000B8
:1008400000000000000000000000000000000000A8
:1008500000000000000000000000000000000F0881
:100860000A06030101010101010101010101010267
:10087000060B0B0F0000000000000000000000004D
:100880000000000000000000000000000000000068
:100890000000000000000000000000000000804098
:1008A000C0000000C040800000C0206020C00000E8
:1008B00070882888700000000000008040C00000A0
:1008C00000C04080000000000000000000000000A8
:1008D0000000000000000000000000000000000018
:1008E00000000000000F102023E46464A3A0D03FA8
:1008F00008050E000E030202020F000F020202049E
:100900000488FF90A0A36464E42320100F0000007B
:1009100000000000000000000000000000000000D7
:1009200000000000000000000000000000000000C7
:100930000000010202F20F8CBCB4BCBCE2EAEAEA9D
:10094000E2FCBCBCB4B4BCB43CFEFEFE82020201BC
:100950000000000000000000000000000000000097
:100960000000000000000000000000000000000087
:100970000000000000000000000000000003020270
:100980000100000000000000000000000000000066
:10099000010102020300000000000000000000004E
:1009A00000000000000000000000000005010980B8
:1009B000A101850319012AB700150126B700950189
:1009C00075108100C0050C0901A101850419012AD7
:1009D000A002150126A002950175108100C0050135
:1009E0000906A1018506050719E029E7150025017B
:1009F0009508750181020507190029EF15002501E9
:100A000095F0750181020508190129059505750103
:100A10009102950175039101C00660FF0961A10172
:100A20000962150026FF00952075088102096315EB
:100A30000026FF00952075089102C005010906A156
:100A400001050719E029E7150025019508750181C1
:100A5000029501750881010507190029FF15002677
:100A6000FF009506750881000508190129059505FF
:100A700075019102950175039101C000000000000D
:100A80000000000000000000000000000000000066
:100A90000000000000000000000000000000007ED8
:100AA0000F00D4FFFFFFC700000078000000000027
:100AB0000000002A2B2800000000000000000000B9
:100AC00000000000000029000000002C1E3420213E
:100AD0002224342627252E362D3738271E1F202185
:100AE00022232425263333362E37381F04050607E4
:100AF00008090A0B0C0D0E0F1011121314151617FE
:100B000018191A1B1C1D2F3130232D35040506071B
:100B100008090A0B0C0D0E0F1011121314151617DD
:100B200018191A1B1C1D2F3130354C00DA0281FFB9
:100B3000D9F1DB20A4A62EAF00A0C000A1C800AE52
:100B4000D580A81FD300408D14200057504D00FDC4
:100B5000377A585A000004E6D6B44602002101163E
:100B6000000000742FE5A3E0024601065D003D8809
:100B700089C65436C3174FE4F2D1ED93B70738C88E
:100B800023D7100F220E57676A3D8B303617E03E91
:100B9000D5CB17D32AA3B005F44744C4DA9659B28B
:100BA0003560DD2C9D362530AF11B8273EA8208D4D
:100BB000D1AED7AB998BEFC8ACFBA599E73930C064
:100BC00047359EC90A0963E1C720F07868D57CE201
:100BD00088FCB2F3B1B15ADAF947B4927C7802F8E2
:100BE000A8836FDF6B3401B648F1B155897D87D496
:100BF0004A7FD757681450A92B8253D2EB5A16DA82
:100C000030377DAFC6834DEF527C86A88EE1059BC1
:100C10005A0ED547AB95A20C6E1AAD4A9A9AE94581
:100C2000090E322DF9A076E2FCDE5367AFD895238A
:100C300023FC2C69EB28DD7CEF57E07C6999AC45FF
:100C4000D421D2EE375AAE806911570447C5E23A33
:100C500013CDF35FF01FEF6FE575C1AB593BFDEFAF
:100C6000734B3CDFD8D34CA61597F5A1CF5346D68E
:100C7000C1218E00000000E4728D35132372E9005B
:100C800001A202C70400003B49D201B1C467FB02C4
:100C90000000000004595A00010101010101010195
:100CA000010202020202020202020303030303031F
:100CB00003030404040404040405050505050606ED
:100CC00006060607070707070808080809090909AB
:100CD0000A0A0A0B0B0B0C0C0C0D0D0D0E0E0E0F51
:100CE0000F0F1010111111121213131414151516E1
:100CF000161717181819191A1A1B1B1C1D1D1E1E52
:100D00001F202021222223242425262627282929A2
:100D10002A2B2C2D2D2E2F303132323334353637CD
:100D200038393A3B3C3D3E3F4041424344454647CB
:100D300048494A4C4D4E4F50515354555658595AA4
:100D40005B5D5E5F616264656668696B6C6D6F7048
:100D500072737577787A7B7D7E8082838587888AB7
:100D60008C8E8F91939596989A9C9EA0A2A3A5A7EE
:100D7000A9ABADAFB1B3B5B7BABCBEC0C2C4C6C9EA
:100D8000CBCDCFD1D4D6D8DBDDDFE2E4E7E9EBEEA3
:100D9000F0F3F5F8FAFDFF290014001A0008001519
:100DA0000017002B0004001600070009000A00E1EC
:100DB000001D001B00060019000500E000E200E332
:100DC0000001512C002C001C0018000C0012001314
:100DD000002A000B000D000E000F00330028001148
:100DE0000010003600370038005200025139005020
:100DF0000051004F000000290014001A00080015DF
:100E00000017002B0004001600070009000A00E18B
:100E1000001D001B00060019000500E000E200E3D1
:100E20000001512C002C001C0018000C00120013B3
:100E3000002A000B000D000E000F003300280011E7
:100E400000100036003700380052000251390050BF
:100E50000051004F000000290014001A000800157E
:100E60000017002B0004001600070009000A00E12B
:100E7000001D001B00060019000500E000E200E371
:100E80000001512C002C001C0018000C0012001353
:100E9000002A000B000D000E000F00330028001187
:100EA000001000360037003800520002513900505F
:100EB0000051004F000000290014001A000800151E
:100EC0000017002B0004001600070009000A00E1CB
:100ED000001D001B00060019000500E000E200E311
:100EE0000001512C002C001C0018000C00120013F3
:100EF000002A000B000D000E000F00330028001127
:100F000000100036003700380052000251390050FE
:100F10000051004F00000000AF00AE09025B00036B
:100F20000100A0FA090400000103010100092111D8
:100F300001000122400007058103080001090401A6
:100F40000002030000000921110100012222000714
:100F500005820320000107050303200001090402A4
:100F6000000103000000092111010001226D0007AA
:100F70000584032000011201000200000008071987
:100F800022200100010203011C03760069006100B8
:100F90006C003A00660036003400630032006200E4
:100FA0003300630000000C03680075007900340012
:100FB0003800000014036800750079006B006100C0
:100FC00061006D006100610000000403090407086E
:100FD0007F0807003E5B4F5B3E003E6B4F6B3E0061
:100FE0001C3E7C3E1C00183C7E3C18001C577D5764
:100FF0001C001C5E7F5E1C0000183C180000FFE710
:10100000C3E7FF00001824180000FFE7DBE7FF003C
:1010100030483A060E00262979292600407F05052A
:101020000700407F05253F005A3CE73C5A007F3EC1
:101030001C1C0800081C1C3E7F0014227F22140088
:101040005F5F005F5F0006097F017F000066899592
:101050006A0060606060600094A2FFA294000804CF
:101060007E04080010207E20100008082A1C0800BA
:10107000081C2A0808001E10101010000C1E0C1E60
:101080000C0030383E383000060E3E0E06000000E0
:101090000000000000005F000000000700070000E3
:1010A000147F147F1400242A7F2A1200231308645B
:1010B0006200364956205000000807030000001C5B
:1010C000224100000041221C00002A1C7F1C2A0033
:1010D00008083E0808000080703000000808080872
:1010E00008000000606000002010080402003E516B
:1010F00049453E0000427F40000072494949460090
:101100002141494D33001814127F100027454545F1
:1011100039003C4A4949310041211109070036494B
:1011200049493600464949291E00000014000000C4
:10113000004034000000000814224100141414146C
:1011400014000041221408000201590906003E4122
:101150005D594E007C1211127C007F4949493600CE
:101160003E41414122007F4141413E007F49494982
:1011700041007F09090901003E41415173007F0888
:1011800008087F0000417F4100002040413F0100EE
:101190007F08142241007F40404040007F021C0233
:1011A0007F007F0408107F003E4141413E007F09DF
:1011B000090906003E4151215E007F0919294600B8
:1011C00026494949320003017F0103003F40404066
:1011D0003F001F2040201F003F4038403F00631465
:1011E000081463000304780403006159494D430067
:1011F000007F4141410002040810200000414141AC
:101200007F0004020102040040404040400000030F
:10121000070800002054547840007F2844443800D8
:10122000384444442800384444287F0038545454F7
:10123000180000087E09020018A4A49C78007F080A
:101240000404780000447D4000002040403D000040
:101250007F102844000000417F4000007C04780497
:1012600078007C0804047800384444443800FC18B2
:101270002424180018242418FC007C080404080006
:1012800048545454240004043F4424003C4040206B
:101290007C001C2040201C003C4030403C00442886
:1012A000102844004C9090907C004464544C4400BE
:1012B00000083641000000007700000000413608B9
:1012C00000000201020402003C2623263C0000002C
:1012D00000000000404040F0F8F8FF38FFF8F83F09
:1012E000F8F8FF38FFF8F8F0404040000000000038
:1012F0000080C0C0C0800000C0C08000000080C06E
:10130000C000C0C0000080C0C00000000000C0C01D
:10131000C0C0C000C0C0000000000000000000000D
:1013200000000000000000000000000000000000BD
:1013300000000000000000000000000000000000AD
:1013400000000000000000000000000000C0F0F8F5
:10135000FC3E1E06010000007F4141417F007F41AD
:1013600041417F000080C0E07E5B4F5BFEC000001B
:10137000C000DCD7DEDEDED7DC00C00000000000ED
:10138000000000000000000000000000000000005D
:1013900000000000494949FFFFFFFFE0DFBFBF0039
:1013A000BFBFDFE0FFFFFFFF494949000000000029
:1013B0001F3F6060E0BF1F007F7F071E381E077F52
:1013C0007F007F7F0E1F3B716000000000007F7F69
:1013D0000C0C0C007E7E007F7E0303007F7E0303E7
:1013E0007E7E03037F7E000F3E703C063C703E0F06
:1013F00000327B49493F7E007F7E0303001E3F6928
:10140000696F2600000000000000000000030F1FAD
:101410003F3C7870600000007F4141417F007F4188
:1014200041417F00307B7F7830202030787F3B0047
:1014300003000F7F0F0F0F7F0F000300000000005D
:10144000000000000000000000000000000000009C
:1014500000000000010101070F0F7F0F7F0F0F7EBB
:101460000F0F7F0F7F0F0F07010101000000000029
:10147000000000000001010000000000000000006A
:10148000000000000000000000000000000000005C
:10149000000000000000000000000000000000004C
:1014A000000000000000000000000000000000003C
:1014B000000000000000000000000000000000002C
:1014C000000000000000000000000000000000001C
:1014D000000000000000000000000000000000000C
:1014E00000000000000000000000000000000000FC
:1014F00000000000000000000000000000000000EC
:1015000000000000000000000000000000001124A6
:101510001FBECFEFDAE0DEBFCDBF11E0A0E0B1E04B
:10152000E6EFFDE602C005900D92AE38B107D9F79F
:1015300026E0AEE8B1E001C01D92A933B207E1F7A1
:101540000E94EC290C94D5360C94000090912E0446
:10155000899FC00111248F5C9B4F90933806809324
:1015600037060895E8EDF0E080818E7F8083109249
:10157000E2001092DA001092E100A0EEB0E08C914F
:1015800081608C9380818F77808319BCA7EDB0E058
:101590008C918E7F8C9380818F7E80831092FB0351
:1015A00008952091E4003091E50095E6A90120918D
:1015B000EC00822F817020FF06C08091E80080FF40
:1015C00006C080E008952091E80022FD1AC08091B5
:1015D0002004882389F0853089F08091EB0085FD17
:1015E0000FC02091E4003091E50042175307F9F253
:1015F0009150E1F684E0089582E0089583E0089533
:1016000081E00895EF92FF920F931F93CF937C0197
:101610008B010E94D10AC82F811117C08091E80068
:1016200085FD0BC08091E8008E778093E8000E94D2
:10163000D10A882399F3C82F08C0F70181917F014F
:101640008093F1000150110949F78C2FCF911F9120
:101650000F91FF90EF9008958091220487FF13C0AF
:101660008091E80082FF06C08091E8008B7780932C
:10167000E80004C0809120048111F2CF0895809188
:1016800020048823D9F38091E80080FFF8CF80916F
:10169000E8008E77ECCF982F9093E900242F762FD7
:1016A00050E0891731F07091EC002091ED005091DD
:1016B000F00021FD07C09F5F973071F78093E9002C
:1016C00081E008953091EB003E7F3093EB00309144
:1016D000ED003D7F3093ED003091EB0031603093B1
:1016E000EB007093EC002093ED005093F0002091FC
:1016F000EE0027FDE0CF80E00895B0E0A0E0E3E851
:10170000FBE00C940933C8EDD0E088818F7E88839C
:10171000E7EDF0E080818160808384E082BF81E03A
:101720008093FB0388818E7F888302EE10E0F801AE
:1017300010821092DA0081EEC82ED12CF6011082B0
:1017400088818F77888388818068888388818F7D6E
:10175000888319BC109220041092210410921F0457
:1017600010921E0490EEE92EF12CF70180818B7F00
:10177000808388818160888342E060E080E00E940D
:101780004B0BF60180818E7F8083F8018081816020
:101790008083808188608083F70180818E7F808351
:1017A000888180618883CDB7DEB7E8E00C9425336B
:1017B000FC01809128049091290486179707A0F0D6
:1017C0006115710529F49091E8009E779093E800E7
:1017D00090E06115710551F4911108C08091E80005
:1017E00082FF34C080E00895BC01F2CF80912004D4
:1017F0008823C1F18530C1F18091E80083FD30C0BC
:101800008091E80082FDEACF8091E80080FFE1CF7F
:101810008091F3002091F200382F6115710519F0C5
:101820002830310558F091E02830310509F090E07A
:101830002091E8002E772093E800CBCF8191809310
:10184000F100615071092F5F3F4FE7CF8091200475
:10185000882341F0853041F08091E80083FFBECFBE
:1018600081E0089582E0089583E008950895089541
:101870008091FD03089587E797E79093010880938F
:10188000000888E19AE00FB6F894A895809360006C
:101890000FBE90936000FFCF2FB7F8946091F203D2
:1018A0007091F3038091F4039091F5032FBF089595
:1018B0002091EF033091F0032817390771F09093CE
:1018C000F0038093EF03E091ED03F091EE03309786
:1018D00021F00084F185E02D099508952091EB0316
:1018E0003091EC032817390771F09093EC03809343
:1018F000EB03E091ED03F091EE03309721F00680C9
:10190000F781E02D09950895E091ED03F091EE0344
:10191000309729F00190F081E02D0995089580E03D
:101920000895DC016091E7038091E803962F891305
:1019300001C00895292F30E0F901EE0FFF1FE15299
:10194000FC4F408151814A175B07A1F487E08A9FD1
:10195000A0018B9F500D112449555C4F81E0FA0185
:1019600084839613E6CF2F5F3F4F23703327209356
:10197000E70308952F5F3F4F922F9370D8CF1092B7
:10198000430310924203E7EAF3E08581811102C02C
:1019900014821682379683E0EF3DF807B1F7089579
:1019A000FB01EF5CFB4F90819817B9F0808385E0D5
:1019B000769567958A95E1F721E030E002C0220F25
:1019C000331F6A95E2F780912F0490913004822BA7
:1019D000932B9093300480932F040895FA01811182
:1019E00001C0FB01099508958091E302982F9E7F25
:1019F00039F48091E302817082608093E30208955C
:101A00008430B8F7089580E00895F894E82FE295BF
:101A1000EF70F0E031A1282F2F7081E090E001C03D
:101A2000880F2A95EAF7982F9095932391A392A176
:101A3000892B82A3789408959091F60392FF06C0B3
:101A4000282F28712830F9F4877F846093FF06C01F
:101A5000282F28712831F1F4877E84612091F703C3
:101A600020FF06C0382F38713830D9F4877F816065
:101A700021FF06C0282F28712831D1F4877E81618B
:101A800094FD877E0895282F24712430F9F68B7FEA
:101A90008860DCCF282F2471243101F78B7E886188
:101AA000DDCF382F3171313019F78E7F8860E0CF6C
:101AB000282F2171213121F78E7E8861E1CFCF93CC
:101AC000DF93EC0182389105A9F1D8F581339105B6
:101AD00009F496C048F58932910509F48AC08A97BD
:101AE00009F495C0C11522E5D20708F0B6C0C115AA
:101AF00031E5D30708F026C1C83ED10508F09CC0E7
:101B0000C03ED10560F5C83AD10508F087C0C53A96
:101B1000D10508F0EFC0C130D10509F12097F9F0E7
:101B2000C430D105E0F440C08533910509F45AC0B2
:101B3000C997C1F68091F603837089F0C0EED0E0BA
:101B40000EC0833E910599F170F4803E910501F13C
:101B5000823E910539F68091F60382FD21C0CE01C7
:101B6000DF91CF910895863E910561F1873E910501
:101B700071F1843E910509F0B5CF8091F70381FFA3
:101B8000EECF8091F603C7EED0E084FD0DC0E7CF25
:101B90008091F60380FD07C19091F70390FFDFCF9E
:101BA000C3EED0E084FFDBCFD0E0C0E0D8CF80919F
:101BB000F60382FDFBC09091F70390FDBFCF84FF39
:101BC000CECFF2CF8091F60383FDDDCFC8CF8091D9
:101BD000F60383FDEEC09091F70391FFF0CFC4EEC2
:101BE000D0E0BDCF8091F60385FFB9CFC9E2D0E048
:101BF000B6CF8091F60385FFB2CFC5E3D0E0AFCF7B
:101C00008091F60386FFABCFCAE2D0E0A8CF8091E7
:101C1000F60386FFA4CFC1E3D0E0A1CFCF3BD1052F
:101C200018F6C85AD0E0CC0FDD1FC55CDE4F099016
:101C3000D881C02DD46493CFC11540E5D40708F0F6
:101C400064C0C11580E4D80708F05CC0CE019A9545
:101C500081159F4108F483CFA7CFC11536E5D3077F
:101C600018F5C11545E5D40708F084C0C11584E511
:101C7000D80708F07AC09C2F969596959E01237000
:101C80003327C115D34508F462C0C1E0D0E002C0DB
:101C9000CC0FDD1F2A95E2F730E2939FC00111249B
:101CA000C82BD92BDA685BCFC1158AE5D80778F441
:101CB000C11599E5D90708F068C0C11528E5D20714
:101CC00008F472CFDC2FCC27C06FD06A48CFCE018A
:101CD00090568115904208F067CF8D2F8F710E942A
:101CE0001C0D90E0982F882788279F719C012C2B32
:101CF000E90149C0C55AD0E0C85CDE4FC881D0E0D8
:101D0000D0642DCFDF70D06A2ACFCE01E4E0969563
:101D10008795EA95E1F783702C2F269526952370F9
:101D200040E2249F90011124382B8C2F8370C1E056
:101D3000D0E002C0CC0FDD1F8A95E2F7C22BD32B77
:101D4000DC680DCFDC2FCC27C16FD06A08CFC1E093
:101D5000D0E002C0CC0FDD1F2A95E2F720E2929F6F
:101D6000C0011124C82BD92BEBCFDC2FCC27C46F9B
:101D7000D06AF5CE8C2F0E941C0DC82FD0E0DC2F2E
:101D8000CC27CC27DF71D062EACE8C2F8F700E94D7
:101D90001C0D34E0D695C7953A95E1F7CF709C2F8E
:101DA000EC01D069DCCEC9E3D0E0D9CEC2EED0E000
:101DB000D6CEC6EED0E0D3CE80913402882331F067
:101DC00010923402109233021092320208958095DC
:101DD000909131029823909331020895109210024D
:101DE00010920F0210920E02089590912A019923E9
:101DF000D1F09091F60397FF16C0E82FE695E6958F
:101E0000E695EE31E0F4F0E0E057FE4F282F277022
:101E100081E090E001C0880F2A95EAF780959281D1
:101E2000892382830895E2E9F1E09191891303C047
:101E3000DF0111971C9291E0E839F907B1F7089595
:101E400090912A019923C1F09091F60397FF14C055
:101E5000E82FE695E695E695EE31F8F4F0E0E057E8
:101E6000FE4F877021E030E001C0220F8A95EAF72B
:101E70008281822B82830895A2E9B1E0EFEF90E0A6
:101E80002D91821751F0EF3F19F4211101C0E92F74
:101E90009F5F9630A9F7EF3F09F408950E2E000CCE
:101EA000FF0BE057FE4FE6CF80910D029091CC01E1
:101EB000981301C008958F5F8770FACF292F98304B
:101EC00078F5863068F590E036E0239F800D911D0F
:101ED0001124682F677023E0969587952A95E1F77E
:101EE000FC01EE0FFF1FE80FF91FEE54FE4F50E00C
:101EF00040E080E0219130E0062E02C03695279523
:101F00000A94E2F721703327042E01C0220F0A94AD
:101F1000EAF7822B4F5F5F4F4330510559F7089521
:101F200080E00895292F983098F5863088F590E064
:101F300036E0239F800D911D1124282F277041E04A
:101F400001C0440F2A95EAF723E0969587952A95D4
:101F5000E1F7FC01EE0FFF1FE80FF91FEE54FE4FF3
:101F600030E020E070E05191DF011197CB01022EAB
:101F700002C0969587950A94E2F78170819585272E
:101F8000842385278C932F5F3F4F2330310559F7EA
:101F900008959C013A9521153F4150F5FC01EE272B
:101FA000F170BC0166277270AC01442754709C012B
:101FB0002227387094FF0EC080E1EF2B09F480E0F7
:101FC000672B09F08062452B09F08064232B89F090
:101FD0008068089581E0EF2B09F480E0672B09F019
:101FE0008260452B09F08460232B19F088600895E6
:101FF00080E00895CF93DF93C0913706D0913806E3
:102000008A30C1F420912E04CE0181539440622F76
:1020100070E00E94EB32281B822F66E00E9436336C
:10202000C82FC15018F4DF91CF91089580E20E942B
:10203000FA0FF7CF8D30E9F4C153D44020912E042C
:10204000622F70E0CE010E94EB32281B822F9E018E
:10205000280F311D2115324018F080E0D0E0C0E09B
:10206000C80FD11DCF5CDB4FD0933806C093370625
:10207000DACF96E0FE01A1E3B6E001900D929A95C9
:10208000E1F7803E08F458C086E0FE0111928A957F
:10209000E9F7C0913706D091380646E050E0BE011E
:1020A00081E396E00E94CF339E0121533440892B77
:1020B00041F1C90145E0969587954A95E1F741E0E0
:1020C00050E0BA0102C0660F771F8A95E2F7CB0194
:1020D00060912F0470913004862B972BB9016B5FB0
:1020E0007F4FE5E076956795EA95E1F702C0440FEA
:1020F000551F6A95E2F7842B952B909330048093BB
:102100002F042A5F3F4F40912E04642F70E0C901D5
:102110000E94EB32481B463010F4240F311D21156C
:1021200072E0370710F030E020E02F5C3B4F309337
:1021300038062093370677CFF6E08F9FB001112441
:102140006253704F46E050E0CE010E94C633A1CFEB
:10215000B0E0A0E0EEEAF0E10C9409336C017B0101
:1021600064E670E088E70E940232EC0197FD12C03D
:1021700010E000E0F601E00FF11F849164E670E0EA
:102180000E947032EC01892B29F40F5F1F4F0E154E
:102190001F0581F70E94E732CE01CDB7DEB7E8E038
:1021A0000C9425338091400390914103911103C019
:1021B00091E089270895882369F062E070E089E161
:1021C0009FE00E94A810892B19F080914003089588
:1021D0001092400380914003EBCFCF93C091400316
:1021E000809141038823D1F00E944C0C605A7541C4
:1021F0008F4F9F4F60933C0370933D0380933E034A
:1022000090933F03C11108C062E070E087E19FE056
:102210000E94A810892B29F0C09140038C2FCF91E8
:10222000089581E080934003F7CF8093F803709383
:10223000FA036093F903809120048430F9F48093C9
:10224000E9008FEF9091E800815095FD06C095ED73
:102250009A95F1F700008111F5CF8091E80085FF94
:102260000DC050E040E063E070E088EF93E00E9432
:10227000020B8091E8008E778093E8000895BC01FE
:1022800084E00E9415110895BC0183E00E9415119D
:102290000895CF93DF93EC0180912A018823B1F157
:1022A0008091F60387FF32C060E284E08093E9000A
:1022B0008FEF9091E800815095FD06C095ED9A95BD
:1022C000F1F700008111F5CF8091E80085FF1BC078
:1022D00080912A0170E050E040E0811104C050E09C
:1022E00040E068E070E0CE010E94020B8091E800BF
:1022F0008E778093E80080E2FE01AEEFB3E00190BC
:102300000D928A95E1F7DF91CF91089568E081E021
:10231000CDCF8091E30280FD0AC0EFEBF2E01182A5
:1023200010821282339652E0E33EF507C1F7539ACA
:102330003BB1377F2BB128604FB7F8948FEB92E019
:10234000FC015191CF0168E02BB9000000C057FF9C
:102350003BB9550F000000C000C000C03BB900C031
:102360006A9591F7F2E0833E9F0751F74FBF8FE5E3
:1023700094E00197F1F700C000000895CF93DF9338
:10238000C7EFD1E060E0CE010E9499362196C115D9
:1023900084E0D807B9F7DF91CF9108951F93CF93C9
:1023A000DF93122F8430E0F46830D0F44630C0F46C
:1023B000C42FD0E0CC0FDD1F9CE0699FC00DD11D64
:1023C000112490E6899FC00DD11D1124632FCE01E9
:1023D00087960E949936612FCE0188960E94993681
:1023E000DF91CF911F910895CF93C82F6FEF811187
:1023F00063E183E290E00E949936C1110DC0CFEFF6
:102400006C2F84E290E00E9499366C2F85E290E078
:102410000E949936CF910895CDE1F2CFAAE0B0E0C5
:10242000E4E1F2E10C940433A0902701B09028017C
:1024300081E090E0909328018093270187E9C82EDE
:102440008DE0D82E00E0760110E015C0F401259152
:102450003491472D612F802F0E94CE1182E0880E8B
:10246000911C739496E07912F1CFECE0EE0EF11C22
:102470001F5F183019F04701712CE8CF0F5FF0E6AD
:10248000CF0ED11C0430F9F6CE0101967C018AE012
:10249000F70111928A95E9F707EA11E04AE050E066
:1024A000B801C7010E94BD36065F1F4F073FF1E02C
:1024B0001F07A1F7B0922801A09227012A96EDE00C
:1024C0000C94203380E00E94F41160E086E290E0FA
:1024D0000E9499360E940E120E94BE1181E00E9455
:1024E000F41108950F931F93CF93DF93843030F549
:1024F000683020F5463010F5C42FD0E0CC0FDD1F3A
:102500002CE0629FC00DD11D112430E6839FC00DC9
:10251000D11D1124CE0187960E948536082F10E028
:10252000102F0027CE0188960E9485369801282B0F
:10253000C901DF91CF911F910F91089590E080E044
:10254000F8CF462F20913A0330913B03232B99F487
:10255000703F39F4603F79F48091380390913903EA
:102560000895843040F4783030F4663020F4672FDA
:102570000E947212089590E080E00895CF92DF9259
:10258000FF920F931F93CF93DF936C0100912A0466
:1025900080913502082BC7E0D0E010E0FC2EC80186
:1025A0000C2E02C0959587950A94E2F780FD0CC029
:1025B0002197A0F7F12C8F2DDF91CF911F910F91D3
:1025C000FF90DF90CF900895B6018C2F0E94A1124A
:1025D0000E945F0D019761F3EECFCF93DF93EC0183
:1025E0000E94BE12BE010E94A1120E945F0DDF91E7
:1025F000CF910895FC0186819781009791F00E9408
:102600005F0D92959F709630B9F080F4925F9F7045
:10261000923080F4803F19F058F4883E58F481E0FD
:102620000895808191810E94ED12EBCF9A5FEFCFE8
:10263000843FA9F380E00895883E88F3813FD1F775
:10264000EECFA5E0B0E0E7E2F3E10C940E339C019D
:10265000FC01868197810097E1F485E0DE01119607
:1026600001900D928A95E1F7F901228189819A8181
:10267000222399F0662389F00E94BE12182F682F3A
:1026800089819A810E94920F69817A81812F0E94AB
:10269000A1122596E3E00C942A330E945E0F182FB6
:1026A000F3CF83E290E00E948536833189F484E29F
:1026B00090E00E9485368D3159F485E290E00E94C9
:1026C000853691E08D3109F090E0892F8170089571
:1026D00080E0FCCFCF9384E090E00E948536C82F45
:1026E00082E290E00E948536982F8C2FCF9108953A
:1026F000AAE0B0E0EEE7F3E10C940933E8EEF2E093
:1027000080E5DF011D928A95E9F7E7EAF3E088E3C7
:10271000DF011D928A95E9F788EEC82E82E0D82E57
:102720007F0107EA11E0F701D182C0824AE050E060
:10273000B801CE0101960E94753688E0FE013196FF
:10274000D60101900D928A95E1F789859A85D70186
:1027500013969C938E931297BAE0CB0ED11CE7E0B0
:10276000EE0EF11C065F1F4F073FF1E01F07D9F681
:102770002A96E8E00C942533CF92DF92EF92FF92F5
:102780006B017C010E94F40CB701A60188E090E087
:102790000E94AB36FF90EF90DF90CF900895B0E0AD
:1027A000A0E0E5EDF3E10C940533D82FC62FD42E2D
:1027B000822EC090E302C0FE32C08C2D8E7F82300C
:1027C000E1F4E42FF0E0E956F34F61112DC02491BC
:1027D000F22FE22FC0FE11C0AFEBB2E083EE92E029
:1027E0001196EC9311972C931296FC9312971396D3
:1027F0008A179B07A9F70E948911D093E402C0931E
:10280000E502D092E602882051F06091E3027091D7
:10281000E4028091E5029091E6020E94BC13CDB7DC
:10282000DEB7ECE00C942133E62EF12CE4919E2EE1
:102830000E2F10E026E0D29FC00111242FEF30E0D0
:10284000B9010E94EB328D2F90E0880F991FF5E5BA
:10285000F69FA001F79F500D1124841B950BB82EF5
:10286000BB0CB80EA9014E195F09409FC001419FE2
:10287000900D509F900D1124F92FCB9DA001112494
:10288000452F5527D901A41BB50BA09FA001A19FDF
:10289000500DB09F500D1124D901AB19B1095D0144
:1028A000AE9CD001AF9CB00DBE9CB00D1124AB2FDF
:1028B000BB272A1B3B0B209FD001219FB00D309FCF
:1028C000B00D11242B2F62307105A1F050F4611569
:1028D000710509F47FCF6130710581F0292FF52F43
:1028E00079CF6430710569F080F06630710509F4C4
:1028F00071CFF4CF2E2FE92FFB2F6CCF2E2FE52F8A
:1029000069CF292FFE2FEB2F65CFE92FF92D252F2A
:1029100061CFE3EEF2E0438128E0421B08F440E09F
:1029200021E0628181810E94CF130895E3EEF2E0FD
:10293000438128E0420F08F44FEF21E0628181815A
:102940000E94CF130895E3EEF2E0628128E0621B5B
:1029500008F460E021E0438181810E94CF13089553
:10296000E3EEF2E0628128E0620F08F46FEF21E00D
:10297000438181810E94CF130895E3EEF2E08181CB
:1029800021E04381628188500E94CF130895E3EED5
:10299000F2E0818121E043816281885F0E94CF1350
:1029A00008958091E702882319F081508093E7020F
:1029B0006091E3027091E4028091E5029091E60259
:1029C0000E94BC1308958091E702833018F48F5F52
:1029D0008093E7026091E3027091E4028091E50246
:1029E0009091E6020E94BC1308958091E30280FF5B
:1029F00019C0817082608093E302662351F0609178
:102A0000E3027091E4028091E5029091E6020E9457
:102A1000BC1320E04091E6026091E5028091E4025F
:102A20000E94CF1308958091E3028695815009F4A6
:102A300081E061E00E94F514089561E081E00E9468
:102A4000F5140895E3EEF2E083E0808311828FEFC6
:102A500082838383148260817181828193810E9449
:102A6000BC13089568EE7EEF90E080E00E94B736D8
:102A700060E082E090E00E94993660E083E090E0C0
:102A80000E9499361092350260E084E090E00E9446
:102A9000993664E082E290E00E94993660E085E039
:102AA00090E00E94993660E086E090E00E949936BE
:102AB0006FEF87E090E00E94993640E050E0BA0165
:102AC00088E090E00E94AB3660E08DE090E00E94EC
:102AD000993640E050E0BA0188E190E00E94AB36C0
:102AE00060E087E190E00E94993640E050E0BA0152
:102AF0008CE190E00E94AB3670E060E080E290E014
:102B00000E94B73640E050E0BA0188E190E00E94B0
:102B1000AB3680E00E94F4110E94621240E050E067
:102B2000BA018FE090E00E94AB3640E050E0BA017D
:102B300083E190E00E94AB36089590E080E00E942F
:102B40009336883E9E4F19F40E945113089580E0F9
:102B500008951F920F920FB60F9211242F933F9357
:102B60004F935F936F937F938F939F93AF93BF9395
:102B7000EF93FF938091E10082FF09C08091E20012
:102B800082FF05C08091E1008B7F8093E1008091FE
:102B9000DA0080FF24C08091D80080FF20C080919F
:102BA000DA008E7F8093DA008091D90080FF9DC08B
:102BB00080E189BD82E189BD09B400FEFDCF81E0DD
:102BC000809320048091FB03811109C00E94B20A06
:102BD0000E947D0B8091E20084608093E2008091EE
:102BE000E10080FF17C08091E20080FF13C0809158
:102BF000E2008E7F8093E2008091E200806180930A
:102C0000E2008091D80080628093D80019BC85E0F2
:102C1000809320048091E10084FF2BC08091E2002A
:102C200084FF27C080E189BD82E189BD89B5982FE5
:102C3000917080FFFBCF8091D8008F7D8093D8006A
:102C40008091E1008F7E8093E1008091E2008F7E91
:102C50008093E2008091E20081608093E2008091A5
:102C60002104882309F447C084E0809320048091E4
:102C700020048091E10083FF27C08091E20083FF60
:102C800023C08091E100877F8093E10082E0809300
:102C90002004109221048091E1008E7F8093E10056
:102CA0008091E2008E7F8093E2008091E20080615B
:102CB0008093E20042E060E080E00E944B0B809154
:102CC000F00088608093F000FF91EF91BF91AF9189
:102CD0009F918F917F916F915F914F913F912F9134
:102CE0000F900FBE0F901F90189519BC10922004E2
:102CF0001092FB0374CF8091E30087FD93E09093E3
:102D00002004B5CF78941F921FB61F9211248F9381
:102D10009F93AF93BF938091F2039091F303A0919F
:102D2000F403B091F5030196A11DB11D8093F20348
:102D30009093F303A093F403B093F503BF91AF9185
:102D40009F918F911F901FBE1F9018959C014FB7A8
:102D5000F8948091F2039091F303A091F403B09161
:102D6000F5034FBF821B930B08952FB7F894809102
:102D7000F2039091F303A091F403B091F5032FBFF8
:102D80000895A8E0B0E0E7ECF6E10C9404338E017E
:102D90000F5F1F4F88E0F80111928A95E9F789E6E5
:102DA000C82E81E0D82EF12CE12CAA24A394B12CBA
:102DB00027E7822E21E0922EF60181916F018F3F4D
:102DC00009F442C0F894E82FE295EF70F0E021A1F9
:102DD0008F70A50102C0440F551F8A95E2F7CA0102
:102DE000922F982B91A392A18095892382A3789406
:102DF00000C0E1E7F1E0712C31E021912F3F09F4AF
:102E00005FC0A22FA295AF70B0E090968C9190E039
:102E10002F7002C0959587952A95E2F780FD50C0E6
:102E2000832F782A330F8E169F0639F7F6013197D4
:102E300080818F3F11F00E94050D50EA5A95F1F7FD
:102E4000F801EE0DFF1D70828FEFE81AF80AE8E036
:102E5000EE16F10409F0B0CF48E050E0B80189E384
:102E600092E00E94CF33FF24F394009709F4F12CF1
:102E7000892B41F188E0F801A9E3B2E001900D92BD
:102E80008A95E1F781E0809338020E94B51690930D
:102E900037028093360280913602909137020E9469
:102EA000A616059798F0E9E3F2E0A7EBB2E081916E
:102EB0008D9342E0E134F407D1F71092380206C056
:102EC00080E0AFCF809138028111E5CF8F2D289619
:102ED000EDE00C9420338091310290914403892BD2
:102EE0008093900180913402882329F10E94B516C5
:102EF0002091320230913302821B930B8838934128
:102F000010F00E94DC0E8091900190913402892B88
:102F10008093900180912A018823E1F18091F6034A
:102F200087FF38C08EE1E2E9F1E090E08150A0F542
:102F300091110E94DC0E40E250E061E172E080E914
:102F400091E00E94CF33892B21F180E2E0E9F1E0AA
:102F5000A1E1B2E001900D928A95E1F7E091ED03D5
:102F6000F091EE033097A9F080912A01882359F05F
:102F70008091F60387FF07C08091900180939101B3
:102F800086E0809390010280F381E02D80E991E05A
:102F90000995089586E0C7CF2191222339F29F5FDA
:102FA000C5CF90E080E00E946E0C90E080E00E942F
:102FB000580C109244030E946B17089580932A04C2
:102FC0000E94D117089580912A04982F9670963008
:102FD00021F488600E94DE170895877FFBCF21E0EF
:102FE00030E001C0220F8A95EAF7209580912A04EB
:102FF00082230E94DE170895909110028095892304
:1030000080931002282F277091F4282F082E000C8F
:10301000330B9217130659F09091F70392FF07C0F4
:103020008595859585950E94EF170E94EE0E08956F
:10303000CF93C091F703C2FB992790F9981791F0AD
:1030400080FBC2F9C093F7036091F60384E090E03F
:103050000E9499366C2F82E290E00E94993682E0BD
:103060000E94FC17CF91089521E030E001C0220FAB
:103070008A95EAF780912A04822B0E94DE17089530
:10308000809335020E94D1170895109231028091E9
:103090002A01E2E9F1E0882361F08091F60387FFDD
:1030A00008C08EE1DF011D928A95E9F70E94D117D1
:1030B000089586E0F7CFAAE2B0E0E1E6F8E10C94EB
:1030C0000E3382E294E02091F100DC012D93CD01DA
:1030D000B4E08A329B07B9F780912304833009F466
:1030E00072C0B8F4813009F449C0823009F4B3C029
:1030F0008091E80083FF96C280912204909123047E
:103100009A3008F08FC2E92FF0E0E952F94C0C94A4
:1031100097338A3009F48EC08B3009F471C089303E
:1031200039F780912204813219F780912604909119
:103130002704009711F00297D9F68091E800877F65
:103140008093E8008091E80082FF38C09091F300FE
:103150008091F200029731F48091F100813011F0FA
:10316000863021F48091F1008093FD038091E80086
:103170008B778093E8000E942C0BBACF80912204B9
:10318000813A09F0B5CF8091E800877F8093E8000D
:103190008091260490912704892B61F460E28EEFE0
:1031A00093E070E00E94D80B8091E8008B778093C9
:1031B000E8009ECF60E090E080E0F3CF80912004B3
:1031C0008111C0CF95CF80912204813A09F090CF30
:1031D0008091260490912704892B09F089CF809152
:1031E000E800877F8093E8008091E80080FFFCCFB3
:1031F00080912A018093F1008091E8008E77B9CF09
:1032000080912204813209F073CF8091260490913D
:103210002704892B09F06CCF8091E800877F809389
:10322000E8000E942C0B8091240480932A010E94C4
:1032300045185ECF80912204813209F059CF8091E8
:10324000E800877F8093E8000E942C0B8091250482
:103250008093FC034DCF80912204813A09F048CF3E
:103260008091E800877F8093E8008091E80080FFEC
:10327000FCCF8091FC03BECF803899F0823809F0F2
:10328000D1C1809126048F70873008F0CBC1809324
:10329000E9008091EB0085FB882780F91092E90016
:1032A00006C080911E0490911F049111826090913C
:1032B000E800977F9093E8008093F1001092F1006E
:1032C0008091E8008E77AAC1882309F498C18230E2
:1032D00009F0A8C18091240481119BC1809126042A
:1032E0008F702FEF280F263008F09CC18093E900E3
:1032F0002091EB0020FF8DC1933031F48091EB00E1
:1033000080628093EB0085C19091EB009061909377
:10331000EB0021E030E001C0220F8A95EAF720930C
:10332000EA001092EA008091EB008860EACF8111F8
:1033300079C1109124041F778091E3008078812B5C
:103340008093E3008091E800877F8093E8000E94EB
:103350002C0B8091E80080FFFCCF8091E300806817
:103360008093E30082E0111183E0809320045AC12E
:103370008058823008F056C12091240430912504F1
:103380002C3DE3E03E07A1F583E08A838AE289834E
:103390004FB7F894DE01139620E03EE051E2E32FB0
:1033A000F0E050935700E49120FF03C0E295EF70E6
:1033B0003F5FEF708E2F90E0EA30C0F0C7968D939C
:1033C0009D932F5F243159F74FBF8091E800877F8D
:1033D0008093E8006AE270E0CE0101960E94D80B6B
:1033E0008091E8008B778093E8001CC1C096E7CFFE
:1033F0008091260490912704432F5527433051058F
:1034000009F44AC078F54130510509F485C08BE5CF
:1034100090E0EBE1FFE04230510509F003C120915B
:10342000E800277F2093E8002091280430912904A8
:103430008217930708F49C0140E02115310509F03B
:1034400070C041116EC08091E80082FDC9CF8091AB
:103450002004882329F2853019F28091E80083FF47
:10346000F2CFBECF4132510509F447C04232510577
:1034700009F0D8C08330910508F0D4C0FC01EE0FEC
:10348000FF1FEE57FE4F0190F081E02D81589E4FB7
:10349000DC018C9190E01DC0332721303105E9F02B
:1034A0002115310579F022303105F9F0233031054D
:1034B00009F0B8C0E8E8FFE0E4918E2F90E0E8E87A
:1034C000FFE007C0EAECFFE0E4918E2F90E0EAEC29
:1034D000FFE0009709F4A6C0A2CFE4EBFFE0E4917F
:1034E0008E2F90E0E4EBFFE0F4CFE6EAFFE0E4911A
:1034F0008E2F90E0E6EAFFE0ECCF8330910508F0F4
:1035000091C0880F991FFC01E857FE4F0190F08190
:10351000E02D89E090E083CF82E190E0E6E7FFE0F4
:103520007ECF80912004882309F45ACF853009F496
:1035300057CF8091E80083FD53CF8091E80082FD52
:1035400082CF8091E80080FF78CF9091F300809146
:10355000F2002115310519F08830910550F041E055
:10356000089709F040E08091E8008E778093E800AA
:1035700064CF44914093F100319621503109019676
:10358000E8CF803809F04EC08091E800877F8093B3
:10359000E800809121048093F10092CE811142C015
:1035A000109124041230F0F58091E800877F809319
:1035B000E800109321040E942C0B112311F084E0E9
:1035C00005C08091E30087FDFACF81E0809320045D
:1035D00042E061EC81E00E944B0B42E261EC84E04E
:1035E0000E944B0B42E261EC82E00E944B0B42E2F4
:1035F00060EC83E00E944B0B8091200413C080910B
:103600002404813079F481E0933009F080E08093E4
:103610001F041092E9008091E800877F8093E80002
:103620000E942C0B8091E80083FF0AC08091E80083
:10363000877F8093E8008091EB0080628093EB00AD
:10364000AA96E3E00C942A331F920F920FB60F92C2
:1036500011242F933F934F935F936F937F938F9397
:103660009F93AF93BF93CF93DF93EF93FF93D0914B
:10367000E900DF708091EC00C82FC17080FDC0E8C8
:103680001092E9008091F000877F8093F000789499
:103690000E945B181092E9008091F000886080938E
:1036A000F000CD2BCF70C093E900FF91EF91DF9137
:1036B000CF91BF91AF919F918F917F916F915F91CA
:1036C0004F913F912F910F900FBE0F901F90189523
:1036D0000E9445182FEF84E39CE0215080409040E9
:1036E000E1F700C0000088E19AE00FB6F894A895D1
:1036F000809360000FBE90936000FFCF882341F05D
:103700008095909144038923809344030E946B1712
:103710000895882339F090914403982B90934403A3
:103720000E946B170895882321F00E94E70E0E94E3
:103730006B170895882339F090913102982B90935C
:1037400031020E946B170895882309F44DC0823816
:1037500079F40E94840C81FF47C089E30E94200F06
:103760000E946B1789E30E94F50E0E946B17089563
:10377000833859F40E94840C80FF36C083E50E9490
:10378000200F0E946B1783E5EECF843859F40E9416
:10379000840C82FF29C087E40E94200F0E946B17CF
:1037A00087E4E1CF9CEF980F913AE8F290E2980F0E
:1037B000983050F4877091E001C0990F8A95EAF72C
:1037C000892F0E94E70ED1CF9BE5980F933028F404
:1037D00090E080E00E946E0C0895885A873120F4B2
:1037E00090E080E00E94580C0895CF93C82F882362
:1037F000C9F08238C9F40E94840C81FD13C089E3AA
:103800000E94200F0E946B172FEF81EE94E0215051
:1038100080409040E1F700C0000089E30E94F50E6F
:103820000E946B17CF9108958338A1F40E94840CF5
:1038300080FDF8CF83E50E94200F0E946B172FEFC9
:1038400081EE94E0215080409040E1F700C00000FC
:1038500083E5E4CF8438A1F40E94840C82FDE2CF9A
:1038600087E40E94200F0E946B172FEF81EE94E0F7
:10387000215080409040E1F700C0000087E4CECFA7
:103880008CEF8C0F813A88F580912A01882301F111
:103890008091F60387FF1CC0EC2FE695E695E69530
:1038A000F0E0E057FE4F828190E04C2F477021E01E
:1038B00030E002C0220F331F4A95E2F782239323A0
:1038C000892B79F08C2F0E94F50E0E946B1709C08E
:1038D000E2E9F1E08191C817A9F321E0E839F207A4
:1038E000C9F78C2F0E94200F9BCF80E28C0F88306D
:1038F00068F4C77021E030E001C0220FCA95EAF7F2
:1039000080913102822B809331028ACFEBE5EC0F5C
:10391000E33040F4F0E0E85CFE4F808190E00E94EC
:103920006E0C80CFC85AC73108F07CCFEC2FF0E086
:10393000EE0FFF1FE55CFE4F808191810E94580CC5
:1039400071CF1F93CF93DF93182FD0E0C0E089335E
:1039500011F4C0E5D0E0812F0E94F51B209739F4C7
:10396000812F0E94A41BDF91CF911F9108958FE9B1
:103970009FE00197F1F700C000002197EFCF0F9370
:103980001F93CF93DF93C62FD42F022FFC01828188
:103990008823A9F060932D040E94B51690932C04FF
:1039A00080932B04C77081E001C0880FCA95EAF7A5
:1039B0000E949A1BDF91CF911F910F9108958091E2
:1039C0002D04681332C080912B0490912C040E9426
:1039D000A616883C910548F510E21D0FCD17B9F0E9
:1039E00080E28C0F883040F4C77081E001C0880FFE
:1039F000CA95EAF70E94931B183048F481E09D2F86
:103A0000977001C0880F9A95EAF70E949A1B802F41
:103A10000E94A11C183070F6D77081E001C0880F99
:103A2000DA95EAF70E94931BC5CFC77081E001C009
:103A3000880FCA95EAF7F6CFB0E0A0E0E2E2FDE138
:103A40000C940733EC018AE0A82E2881222309F484
:103A50008FC02130C9F599818A81913021F4229655
:103A60000E94A11C05C0923029F422960E94F51BE9
:103A70002196EBCF933021F422960E94A41BF8CF1D
:103A8000943011F02196F4CF229630E020E0AE0180
:103A90004F5F5F4F8053990B8A30910550F0215052
:103AA000310930F38FE99FE00197F1F700C0000082
:103AB000F6CFA29EB001A39E700D11249C01260F8B
:103AC000371F8981EA01E3CFE22FF0E0E555F54F9A
:103AD000B490822F86958695869590E0FC01E556F8
:103AE000F54FE4902770F12C022E02C0F594E79474
:103AF0000A94E2F731E0E322FF24FC01E557F54F99
:103B0000C490D12C022E02C0D594C7940A94E2F737
:103B100031E0C322DD24FC01E558F54F049110E0AB
:103B200002C0159507952A95E2F701701127E11457
:103B3000F10419F081EE0E94F51BC114D10419F0B3
:103B400086EE0E94F51B8B2D0E94A11CC114D1048E
:103B500019F086EE0E94A41BE114F10419F081EE25
:103B60000E94A41B0115110509F482CF8CE278CFC5
:103B7000CDB7DEB7EAE00C9423339091F70392FFC0
:103B800010C098E0899F90011124622B609310026D
:103B90000E9434180E94B51690930F0280930E0273
:103BA00008950E9434180895A9E1B0E0EAEDFDE11E
:103BB0000C94FF32498B5A8B6B8B7C8B8D8B6111F4
:103BC000109244031D861E861F86188A85E0FE011A
:103BD0007196DE01199601900D928A95E1F7809118
:103BE000F70382FF1CC00E94B51620910E0230918F
:103BF0000F02821B930B8838934120F080911002B2
:103C000082FFEBC10E94B51620913202309133023F
:103C1000821B930B8838934110F00E94DC0E8C8538
:103C20009D85892B31F089859A8589238F3F09F0FD
:103C3000C0C129853A854B855C856D857E858F85DC
:103C400098890E945C28C3C048EFC4164CE5D4068E
:103C500029F4882379F00E942229EBCF69EFC61658
:103C60006CE5D60639F4882329F080912901811169
:103C7000F2CFAFC107EA13E0E12CB12CA12C8824CC
:103C80008394912C2EEF522E44244394F8014081CA
:103C9000518166246A94762C20E0822F90E0FC010A
:103CA000EE0FFF1FE40FF51F608171816115710533
:103CB00031F0C616D70609F43C012F5FEECFF12C88
:103CC000FFEF6F167F0609F444C0F8014481F090BD
:103CD00029018F2D411180E0F82FF170FF2EF8019E
:103CE000258086819B85992309F4F2C0FF2009F481
:103CF000EFC0211014C0A401062C01C0440F0A9487
:103D0000EAF7842B86838091420390914303C29704
:103D100030F462E370E07093430360934203C401A4
:103D200002C0880F991F2A95E2F70197F8012681B2
:103D30002817190671F48091E9039091EA0300971E
:103D400009F449C00E94A616C39708F444C0F801BC
:103D50004482EF28FFEFAF1ABF0A095F1F4F28E028
:103D6000A216B10409F092CF8B85882309F40CC107
:103D7000EE2009F409C10E94B5169093EA038093DE
:103D8000E90380914603883010F591E0980F9093F5
:103D9000460398E0FE013996DE01119601900D92DE
:103DA0009A95E1F73CE0839FC0011124895B9C4F09
:103DB00028E0FE013196DC0101900D922A95E1F791
:103DC0002FEF3FEFFC0131872087D386C2866996AB
:103DD000E2E10C941B338091E7035091E803982FA4
:103DE000F0E0E0E0851314C09093E7030E171F077F
:103DF00009F4AFCF90E0FC01EE0FFF1FE152FC4F42
:103E0000B182A0820196837099278093E803A1CFA5
:103E1000282E312CF101EE0FFF1FE152FC4F2081C3
:103E20003181F7E0F29FD001F39FB00D1124A95525
:103E3000BC4F2D913C911197398F288F40E020E0A5
:103E400030E0E32FF0E0EE0FFF1F688D798DE60F75
:103E5000F71F6080718061147104E1F0F801019036
:103E6000F081E02DFF8BEE8B20E005C06616770613
:103E700009F44F2D2F5FE22FF0E0EE0FFF1F6E8948
:103E80007F89E60FF71F608171816115710571F7F8
:103E90003F5FD7CF4423C9F0F801231708F0FD0195
:103EA0004482E017F10721F49093E703F42E51CFF9
:103EB000981305C0EA17FB0711F49F5F93709101F7
:103EC0002F5F3F4F822F83708DCFF0E0E0E0F7CF80
:103ED00090E0211020C0B40102C0660F771F2A9520
:103EE000E2F79B01215031098217930731F44423F3
:103EF00009F448C0C5010E94910CC401062C01C000
:103F0000880F0A94EAF7982F9095F8018681892303
:103F10008683F22C1ECF9C01062C02C03595279576
:103F20000A94E2F7A90141705527BC01615071095B
:103F300086239723892B11F5452B01F1F801828106
:103F40009381892BC1F01B821C821D821E825982A3
:103F50005A820E94B5168160582F9D838C83F80188
:103F6000828193818F83988729813A814B816D81EA
:103F70007E810E945C28F8011582BFCFF22FF1707C
:103F80002F2EBBCF2F2CB9CF9091E7038091E80360
:103F9000981731F00E943129EE2009F44ACE17CF4C
:103FA0000E94CC281092EA031092E9030E94BF0CF1
:103FB000F3CF61E0CE0109960E9421136C018B853D
:103FC000F7EFCF16FCE5DF0609F03ECE882309F4B3
:103FD00051CE81E0809329012CCE82E00E94FC1713
:103FE00011CEA5E0B0E0E7EFFFE10C940D338C01BA
:103FF0009093390380933803011580E21807C0F4C9
:10400000802F0E94A41BC8010E94C90F9801205E46
:1040100031092830310518F00115110531F40E94DD
:10402000931B2596E4E00C9429330E947E1BF9CF64
:1040300080EF89838A831B820E94B5168160782F66
:104040009D838C8349815A816B818D810E94D41D0F
:10405000E8CFA5E0B0E0EFE2F0E20C940D338C0184
:104060009093390380933803011580E21807C0F458
:10407000C8010E94C90F9801205E3109283031051E
:1040800018F00115110549F40E949A1B802F0E9417
:10409000F51B2596E4E00C9429330E94891BF6CF8A
:1040A00080EF89838A8381E08B830E94B5168160CB
:1040B000782F9D838C8349815A816B818D810E94E9
:1040C000D41DE7CFA4E0B0E0E8E6F0E20C940633BC
:1040D0006C01FC0183819481892B31F08081918175
:1040E00089238F3F09F0E6C42496EBE00C94223339
:1040F00090E080E00F3F110511F008F0F6C4C80110
:10410000F4C4011584E0180709F468C0C8010E94CE
:104110008536811101C0FA940F5F1F4F10C58BEFD8
:104120008E0D833050F5C8010396FB825C01FF20A1
:1041300009F43CC5580124E0A20EB11C0E9485364A
:104140008C83882309F432C50B811C8101303FEF39
:10415000130710F0102F002746E0E41651F057E047
:10416000E51619F0C8010E942920C8010E94F11F1C
:104170001DC5C8010E94292019C584E0E81216C592
:10418000580194E0A90EB11CC80103960E9485361F
:10419000FF2021F1882311F18150990B989E900105
:1041A000999E300D1124EF2DE150FF0BCF01820FAE
:1041B000931F019708F4FAC4EFE9FFE03197F1F794
:1041C00000C00000F6CFCE0101960E941C1D5701D1
:1041D000EDC481E00E9434180E94E3178091100220
:1041E000877009F481CFF6018281882309F47CCF9E
:1041F0008091F70382FF78CF82E00E94FC1774CF92
:1042000081E00E94EF17E8CF222309F451C482E035
:10421000E1CF053FECE51E0709F461C008F45BC07F
:10422000063F3CE5130709F45EC0222309F4C0C42D
:1042300010922D0403304DE5140708F05BC00A3FCF
:104240005CE5150730F4C80182509C45449708F09E
:104250005BC00E946A139093F7038093F6030131C9
:10426000ECE51E0709F428C108F0A2C009302CE5CE
:10427000120709F40FC108F070C005304CE51407AF
:1042800009F400C108F055C003308CE5180709F4A3
:10429000EFC008F0F3C08091F60381600230ECE5D6
:1042A0001E0709F4E8C06091F6031091F70384E05B
:1042B00090E00E949936612F82E290E00E94993648
:1042C0000E9445188BCF27E245EE65EEE4C326E257
:1042D00041EE60EEE0C327E245EE64EEDCC326E289
:1042E00041EE62EED8C327E245EE66EED4C328E283
:1042F00041E0EBCF01368DE5180709F4AACF053A66
:104300009DE5190709F4A5CF0631FCE51F0709F063
:10431000CBC4809131028A7A91E009F490E09093C5
:10432000B0018111F3C089E20E94200F0E946B1737
:1043300055CF8091F60380620730FCE51F0709F432
:104340009AC08091F603806108302CE5120708F4CA
:1043500092C08091F60380648EC08091F6038B7FBB
:104360000D303CE5130709F486C070F48091F60324
:104370008E7F0B305CE5150709F47DC008F490C012
:104380008091F6038D7F77C08091F6038F7E0F308A
:104390009CE5190709F46FC08091F603877F00310F
:1043A000ECE51E0708F467C08091F6038F7D63C0BB
:1043B0000D3FFCE51F0709F47BC058F505313CE5CE
:1043C000130709F483C098F48091F603837F0331C7
:1043D0005CE5150709F44FC008F472C00E94451847
:1043E0009091F603892F97FB87F9805844C00B3FC3
:1043F0009CE5190709F44AC008F056C08091F703FC
:1044000081600A3FFCE51F0709F04DCF8093F70359
:104410004ACF01302DE5120709F464C0C0F4809141
:10442000F7038C7F0F3F4CE5140781F38091F7036E
:10443000836001155DE5150748F38091F703982F18
:10444000909591708E7F892B90FB81F9DFCF01369B
:104450008DE5180709F44CC0053A9DE5190709F4E4
:104460004EC00230EDE51E0709F01DCF60E03BC0F5
:104470008091F60382608093F60315CF8091F60356
:104480008460F9CF8091F6038860F5CF8091F703BF
:104490008260BCCF0E9445188091F6038068EBCF04
:1044A0008091F6038C60E7CF8091F7038E7FAECFCB
:1044B0008091F7038D7FAACF8091F6038F7BDBCFAE
:1044C0000E9445188091F6038F77D5CF8091F6032F
:1044D00082FB992790F921E0922790FB82F990FBCB
:1044E00083F9C9CF61E08EE090E00E949936DBCE7F
:1044F0009091F603892F8F7E94FF8061BCCF9091BD
:10450000F603892F8E7F90FF8160B5CF85E30CCFB6
:104510008091B001811104C089E20E94F50E06CF9E
:1045200085E3FBCF81608093E30261E086950E9482
:10453000F51454CE43E155E16DE175E10E94EE0CB6
:104540004DCE4DE155E163E175E1F8CF4DEB54E11E
:1045500067EC74E1F3CF49E854E166E974E1EECF2A
:1045600061E081E0E4CF0E9445185FEF84E39CE0C6
:10457000515080409040E1F700C000000E943B0C89
:104580008091F70382FB882780F991E089270E94B8
:104590001818F601868197810097C1F10E945F0D7E
:1045A0008C01F601E280B580B2943FE0B3228091A5
:1045B00010028770C1F0AE2CEE20B1F0812F807F09
:1045C000803421F080E2800F883068F08091F7031A
:1045D00082FF09C082E00E94FC1780911002877060
:1045E000AA24A3948111A12C912E92942FE09222BF
:1045F000FBE0F91508F488C0E92DF0E0EF51F94C23
:104600000C94973381E0C3CF80E0C1CF82810081D9
:104610001181882369F0C8010E94BE12F82E682F0C
:10462000C8010E94920FB8018F2D0E94A112B6CF2F
:10463000C8010E945E0FF82EF6CF212F2F70F22EA8
:10464000107F19F0F29490EFF922EE20B9F0FF20DC
:1046500069F080E2800F883010F0011109C080916C
:104660003102F82AF09231020E946B17802F4AC063
:1046700080914403F82AF0924403F6CF802F0E94E1
:10468000A41BFF2009F440C080E2800F883010F0A6
:10469000011104C08F2D0E94E70E06C0F094809196
:1046A0004403F822F09244030E946B172DC0312F6F
:1046B0003F70F32E107F103219F0F29480EFF82241
:1046C000002381F0013009F494C0EE2009F49DC06C
:1046D000BB2009F46AC0F601858180FFC7CF8F70C7
:1046E000858363C08091F70382FD38C0EE2081F19D
:1046F000FF2039F080913102F82AF09231020E94B5
:104700006B1780E00E94F51B492D4850550B443033
:10471000510510F40E94840CAA20A9F08091100287
:1047200080FD11C0F60112828595859585950E94C0
:104730003418C6010E9462208091100285958595EB
:1047400085950E94EF1760E0C6010E942113CCCC32
:1047500080E00E94A41BFF20B9F29CCFEE2049F11B
:10476000B11004C0809134028F2920C041E0B412FE
:1047700010C082FFC9CF80913402F82AF81621F2C6
:104780000E94B5169093330280933202F092340265
:10479000BBCF55E0B512E6CF0E94DC0E9091B1017F
:1047A0008F2D892B89138093B1018F2D0E949A1B25
:1047B000ABCFB11003C00E94DC0E12C081E0B81272
:1047C00013C0809131028F2109F49ECF0E94DC0E2C
:1047D0009091B1018F2D8095892389138093B10128
:1047E0008F2D0E94931B90CF95E0B91609F48CCFC2
:1047F000E2CFEE2029F0E5E0EB1508F485CFD5CF28
:10480000F4E0FB1508F480CFEBCFBB2049F309336C
:1048100049F4FFEF27EE33E0F15020403040E1F75C
:1048200000C00000802F0E94A41B6ECF812F8695B0
:104830008695837061F0813009F066CFC80193706E
:10484000E11002C090E080E00E94580C5DCFC801EA
:104850009370E11002C090E080E00E946E0C54CF93
:10486000812F837089F5E1104FCF402F42954695F7
:104870004770440F440F802F8F70042E01C0880FA3
:104880000A94EAF7202F207104FF07C02FE030E0E0
:1048900001C0220F4A95EAF72095169516951370D8
:1048A000123069F050F430913502113029F0822B2A
:1048B00083230E94401828CF832B822BFACF282BEA
:1048C000809135028227F5CF8695EE2011F0812F59
:1048D0008170882309F418CF402F42954695477080
:1048E000440F440F802F8F70042E01C0880F0A944C
:1048F000EAF7202F207104FF07C02FE030E001C04D
:10490000220F4A95EAF720951695169513701230E6
:1049100069F050F430912A04113029F0822B83235E
:104920000E94DE17F1CE832B822BFACF282B8091A9
:104930002A048227F5CF1F70EE2029F0812F0E94D4
:104940003418802F33CF802F0E94931B812F0E9419
:10495000EF17DACE023F89F160F4003FB9F0013F72
:1049600081F0EE2009F464C0B11080CE812F8F71E8
:1049700028C0033F49F1043FA1F78091F70382FD6E
:104980002FC0812F8F71EE2011F31BC0EE2081F01C
:1049900044E04B1508F4B8CE1F7181E090E0012E81
:1049A00001C0880F0A94EAF790912A048927B8CFAA
:1049B00055E05B1508F4A8CEEFCF812F8F71E11081
:1049C000C6CF0E943418A0CE80E0EE2009F4A8CF14
:1049D0001F7181E0012E01C0880F0A94EAF7A0CF71
:1049E000EE20C9F0809110028770843041F40E945B
:1049F000EE0E812F8F710E94EF17A12C85CE84E0DF
:104A00008B15D8F31F71812F0E94341863E0812F1A
:104A10000E94BD1DF2CF94E09B1530F40E94EE0E73
:104A200064E0812F8F71F4CF81E00E94FC17E5CF05
:104A3000BB2059F0093309F0F5CEEFEFF7EE23E094
:104A4000E150F0402040E1F7EBCE812F8F717FCF16
:104A50000031FFE51F0709F4BCCB01313FE5130727
:104A600009F4D2CB033F3CE5130709F430CC08F03E
:104A7000D0CB083D5CE5150709F425CC093D8CE554
:104A8000180709F434CC073D9CE5190709F0CDCB94
:104A900026E241EE61EEC6010E94BF1C9FCB0031B1
:104AA0004FE5140709F4ACCB01315FE51507D1F6EA
:104AB00082E0A7CB61E0C6010E9421138C01F601C0
:104AC0002281222361F3C80190568115F0E29F07ED
:104AD00050F0905E811530E1930728F0915C8115CC
:104AE0009F4108F005CBC8019927AC0144505109FA
:104AF0004432510518F08B970E9780F4E0915102E3
:104B0000F0E0EE0FFF1FEA5AFD4F808191818F3F49
:104B10005FE7950719F0019691838083C801825160
:104B20009F45409708F094CF8FEF93E00E94853621
:104B3000811154CB5EEEF52EF00E07EF11E0F1106F
:104B4000E0CA19821A821B821C8299249A947801E5
:104B50009FEFE91AF90AC8010E94853689831A82F3
:104B6000882309F43BCB813009F02DCB5801E2E0DA
:104B7000AE0EB11CC7010E948536E82E8A838823B9
:104B800009F42CCBC5010E948536F82E8FEF8E0DCF
:104B9000833008F0C4CA5801F3E0AF0EB11CFB82A9
:104BA000FF2021F0CE0101960E941C1D8501CFCF70
:104BB0000631FCE51F0709F4ABCC8091310282720B
:104BC000093C2CE5120709F4C6CC08F046C0053CA8
:104BD0004CE5140709F4BACC48F5033C9CE51907E9
:104BE00009F4A8CC08F0ADCC023CFCE51F0709F0A5
:104BF000D0CC8091E30280FF95CC8E7F8093E3023E
:104C00006091E3027091E4028091E5029091E602E6
:104C10000E94BC132FEF30E742E02150304040406B
:104C2000E1F700C000000E948911D8CA43EA54E1AC
:104C300060EB74E1073C2CE5120709F47FCC47ECEC
:104C400054E16DEB74E1083C3CE5130708F476CCC5
:104C500040EB54E163EA74E171CC0D3C4CE5140780
:104C600009F47ECCB8F441ED54E163EE74E10B3C01
:104C70009CE5190709F462CC46E954E169E874E15E
:104C80000C3CECE51E0708F459CC43EE54E161ED11
:104C900074E154CC063DFCE51F0708F49FCA0D35AE
:104CA000100709F49BCA75CC0A353DE5130709F4D2
:104CB000A9CC68F401155CE5150709F454CC0E3D48
:104CC0001C4509F066CC0E9432150E94681B0C3509
:104CD0009DE5190709F454CC08F496CC073A1D4514
:104CE000A1F357CCCF93DF938091C901807F09F066
:104CF00049C08091C601882309F444C080910D0207
:104D0000D091CC016091C4017091C501A091C701FF
:104D1000B091C801C62FC723D817A1F190E0109712
:104D200011F0CF3F19F401968770F6CF9C0143E054
:104D3000220F331F4A95E1F7F901E353FE4F4181FA
:104D40004713F1CF40814613EECF42814111EBCFA3
:104D5000438154814A1B5B0B483C510520F78091ED
:104D6000C9018F7080618093C901F901EE52FE4F35
:104D700080818F708061808384EC91E00E9462204A
:104D80000E94540FDF91CF910895A5E1B0E0EBECC4
:104D9000F6E20C9407338C0185E0F801DE015196B0
:104DA00001900D928A95E1F7F801E28064ECA62E5D
:104DB00061E0B62E6091C7017091C801611571055F
:104DC00009F45CC19091C4014091C501892F8423ED
:104DD0008F3F09F453C120813181C380D480F0908A
:104DE000C601F601E61BF70BFF2009F411C1809103
:104DF000C901582F507FE83CF10508F0C4C051119B
:104E000075C0FE2C43131EC092131CC06091CA01D2
:104E10007091CB01F801468157816417750791F4B1
:104E2000E11010C08F7080618093C901C5010E949C
:104E300062208091C901F80185838F2D6596EAE093
:104E40000C942333C114D10429F0822F83238F3F84
:104E500009F02FC180E0F82FF170DF2E80FF3CC0F9
:104E600080910D024091CC01841315C0298B3A8B9F
:104E700089899A890E94ED12292F22952F7022305C
:104E8000F8F0243020F59F70F9F0F8019581907FBB
:104E9000D9F4D12C1FC090E0FC0153E0EE0FFF1FAE
:104EA0005A95E1F7E353FE4F5181351306C0508107
:104EB000251303C05281E5120FC001968770D4CF2D
:104EC0009F7011F0882329F3805E883010F3C801A9
:104ED0000E946220FD2CB1CFEE2009F4AECF80916C
:104EE000C90181608093C901F12CA7CF43131BC076
:104EF000921319C04091CA015091CB01F80126814B
:104F000037814217530779F4E1100DC08583C8013A
:104F10000E94622088E0F801A4ECB1E001900D92BB
:104F20008A95E1F78ACFC8010E94FA12882339F1E5
:104F3000EE2029F18091C9018032A0F02091C401B6
:104F40003091C5013A8729871B86DD86CC868E87FE
:104F50008091CA019091CB01988B8F87CE010996E1
:104F60000E94622088E0F801A4ECB1E001900D926B
:104F70008A95E1F70E947226FF24F3945ECFC80160
:104F80000E946220F9CF51110AC084EC91E00E9486
:104F9000622088E0F50111928A95E9F7A5CF4313C5
:104FA00018C0921316C04091CA015091CB01F8016C
:104FB000268137814217530761F4E1100AC08583C7
:104FC000C8010E94622088E0F50111928A95E9F7F4
:104FD00034CFC8010E94FA12882389F2EE2079F2B8
:104FE0008091C901803208F4BDCF2091C401309175
:104FF000C5013A8329831B82DD82CC828E83809116
:10500000CA019091CB0198878F83CE010196A8CFDA
:10501000E83CF105C0F6FE2CEE2009F4B0CF4313B6
:105020001FC092131DC02091CA013091CB01F8011D
:10503000868197812817390799F49091C90190FDCD
:1050400069CF907F09F466CF8091C9018583903F35
:1050500009F45DCF982F907F905F8F70892B56CF8A
:10506000C8010E94FA1281117DCF8091C90181602F
:105070008093C901C8010E946220DFCEEE2009F4AE
:105080007ECFC8010E94FA12F82E882309F477CF48
:1050900088E0F801A4ECB1E001900D928A95E1F767
:1050A0008091C4019091C5010E94ED120E94722668
:1050B000C4CE81E08E25CFCEA0E1B0E0E2E6F8E2FA
:1050C0000C940F3329873A874B875C876D877E87DF
:1050D0008F87988BCE0109960E94C526811112C038
:1050E00088E0FE013996DE01119601900D928A95B5
:1050F000E1F78C859D85892B29F089859A858923FF
:105100008F3F81F580910D029091CC01891317C0DA
:105110006096E2E00C942B3393E0AA0FBB1F9A95A4
:10512000E1F7A353BE4F98E0FE01319601900D9236
:105130009A95E1F78093CC010E94540FE3CFB8E039
:105140008B9FC001112483539E4F0E94C526882344
:10515000F9F280910D0290E0019687709927809373
:105160000D02D0CFA091CC01B0E0CD0101968770A7
:10517000992720910D022817190671F60E944518EB
:105180001092CC0110920D0288E0E4ECF1E0DF0116
:105190001D928A95E9F7B6CF0F931F93CF93DF93B4
:1051A00080914603E0914503CCE081111AC0DF9164
:1051B000CF911F910F910895D1E0DE0FD093450359
:1051C0000E2F10E0EC9FF0011124E95BFC4F83816E
:1051D0009481892B29F08081918189238F3F51F41B
:1051E000ED2F80914603E81738F310924603109292
:1051F0004503DDCFC09FD001C19FB00D1124A95B35
:10520000BC4F16968D919C911797892B29F418966F
:105210008D919C91019651F420813181428153817D
:1052200064817581868197810E945C28C09FF0010E
:10523000C19FF00D1124E95BFC4F14821382109280
:105240004403CECF1092EA031092E9031092290191
:105250008091E8038093E7030E94BF0C0E94CC2852
:105260000895B0E0A0E0E7E3F9E20C940033C091C8
:10527000E70397E0892E01E010E02CE0322E3EEFAC
:10528000932E442443948091E8038C1309C00E9418
:10529000CC280E94BF0CCDB7DEB7E1E10C941C33E3
:1052A000D0E0FE01EE0FFF1FE152FC4F80819181A3
:1052B000889ED001899EB00D1124A955BC4F14962B
:1052C0002C911497211158C050904603E7E4F3E065
:1052D00030E020E0712C5D01251508F04BC0E28420
:1052E000F384D501CD90DC906FEF7FEF612C462DDC
:1052F00050E0DA01AA0FBB1FAC0DBD1D0D90BC9193
:10530000A02D109731F0EA16FB0609F4BA01639458
:10531000EECF6F3F7607A9F1D80102C0AA0FBB1FDD
:105320006A95E2F77A2AB801062C02C0660F771F49
:105330000A94E2F7AB014150510974161506F9F4CD
:10534000329EF001339EF00D1124E95BFC4F889EE4
:10535000D001899EB00D1124A955BC4F12962D91F4
:105360003C9113973783268390829182918780871F
:1053700015964C920E94910C2196C37084CF148292
:1053800013822F5F3F4F3C96A7CF1F921FB61F92ED
:1053900011248F939F93AF93BF938091F103811159
:1053A00013C08091F2039091F303A091F403B091A4
:1053B000F5034196A11DB11D8093F2039093F30371
:1053C000A093F403B093F503BF91AF919F918F9198
:1053D0001F901FBE1F901895CDB7DEB7E7970FB689
:1053E000F894DEBF0FBECDBF85B7806885BF85B797
:1053F000806885BF84B7877F84BF0FB6F894A8956F
:1054000080916000886180936000109260000FBE00
:1054100080E890E00FB6F89480936100909361006B
:105420000FBE83E09DE090938F0180938E010E94D8
:1054300078130E94B20A0E947D0B8091E200846082
:105440008093E2007894809120048823A1F0109149
:10545000E9001F709091EC00892F817090FD80E829
:10546000182B1092E9008091E80083FD0E945B18E0
:105470001F701093E90082E084BD93E095BD9AEF20
:1054800097BD80936E000E945113811102C00E944B
:10549000621209E611E051E7E52E51E0F52ED80140
:1054A0008D918D018F3F11F00E94050DE016F106E0
:1054B000B1F701E711E047E7E42E41E0F42EF801EF
:1054C00081918F018F3F11F00E94050DE016F106CA
:1054D000B1F788E0E7EBF2E0DF01282F1D922A9573
:1054E000E9F7E9E3F2E0DF011D928A95E9F70E940E
:1054F0009D15811102C00E94321582E090E00E9449
:105500008536809342020E946A139093F70380933A
:10551000F6030E94C116BFEFE6E7F1E0B150E040AC
:10552000F040E1F700C000000E94C1168091B70270
:1055300080FF08C06FEF7FEF90E080E00E94B736F9
:105540000E943B0C83E090E00E9485360E94401848
:105550001092B20280E880932E040E94FC316DE02C
:1055600070E08EE39BE00E94A810892BE9F5809102
:10557000B20263E070E081FDCEC28BE39BE00E944B
:10558000A810892B89F56DE070E08BE29BE00E940A
:10559000A810892B49F50E944C0C605A75418F4F19
:1055A0009F4F60933C0370933D0380933E03909321
:1055B0003F03E1E3F4E080E092E0DF019C011D9213
:1055C00021503040E1F7F0933806E09337068FEF33
:1055D0009FEF9093300480932F0481E080934103E8
:1055E000809340031092B30280914102811131C037
:1055F0000E949D15811104C00E9432150E9422153F
:1056000088E090E00E948D366093E3027093E4029C
:105610008093E5029093E6026E7F71F40E9422155A
:1056200088E090E00E948D366093E3027093E4027C
:105630008093E5029093E6020E94F40C8091E302CD
:1056400080FF04C060E086950E94F51481E080939D
:10565000410280E091E09093EE038093ED0380910E
:10566000200400E112E1853009F492C20E94C116C3
:105670008DAB81110E944C0C37EB432E32E0532E40
:10568000E3E4F2E0D20110E000E0302F8D9191913F
:10569000981709F48CC2292F282790E0FF24F3944F
:1056A000422F4F2109F47EC29BA73CA78F2191E096
:1056B00009F490E09DA70E94B5168160782F9FA7FE
:1056C0008EA74BA55CA56DA58FA50E94D41DF801E2
:1056D000ED5BFD4F8081F826F082809129018823BF
:1056E00001F18091E9039091EA030097D1F00E94C3
:1056F000A61620914203309143032817390788F4F6
:105700009091E7038091E803981709F467C20E941B
:10571000312910924303109242031092EA0310922F
:10572000E9038090560290905702092C000CAA08B9
:10573000BB0880910C0190E0E6E5F2E021E030E06A
:105740003296821793070CF052C2809152029091C8
:105750005302A0915402B09155026FB7F894C090D3
:10576000F203D090F303E090F403F090F5036FBFE1
:10577000C81AD90AEA0AFB0A10910C0139ECC316BF
:10578000D104E104F10414F18091510290E00196FA
:1057900069E170E00E94423380935102880F991FA3
:1057A000FC01EA5AFD4F11821082812F183108F056
:1057B00087E18F5F80930C010E944C0C6093520232
:1057C00070935302809354029093550242E08416E2
:1057D0009104A104B1040CF417C2A0E6BAEEA5012D
:1057E00094010E94A4334B015C0188EC189F900146
:1057F0001124032E000C440B550B2C0D3D1D4E1D8A
:105800005F1DA5E0B0E00E94A4339B01AC01C5017F
:10581000B4010E94563369017A0191EFC916D1048F
:10582000E104F1042CF080EFC82ED12CE12CF12CF6
:1058300080914D0290914E02A0914F02B091500282
:105840002FB7F8948090F2039090F303A090F403A4
:10585000B090F5032FBF881A990AAA0ABB0AA5E6D9
:105860008A169104A104B10484F00E944C0C609348
:105870004D0270934E0280934F029093500280919C
:105880008C0280934C02C0924B02C0904C02A091BB
:105890004B02AC19BB0BA50194010E94AF3324E667
:1058A00030E040E050E00E947833C20EC0928C029B
:1058B00080914103882309F4E2C080E00E94A60A97
:1058C00040918E0250918F026091900270919102EE
:1058D0002FB7F8948091F2039091F303A091F40311
:1058E000B091F5032FBF841B950BA60BB70B8B3F15
:1058F0009105A105B10508F466C0CC2009F463C088
:1059000080E00E94A60A0E944C0C60938E02709365
:105910008F02809390029093910280918D0290E08B
:105920009C01220F331FBDE2BC1508F071C12C5E33
:105930003E4FF901A080B180019666E070E00E94C0
:10594000423380938D02F12CE12C18E4912EC70193
:105950008F77992700910E0110910F0186319105E3
:1059600074F08017910738F09801285B3F4F281793
:10597000390708F053C1B70180E00E94D00CBFEF97
:10598000EB1AFB0AE1E0EE16E2E0FE0601F7C801C1
:105990004697FDE2FC1508F05AC1839728F08091E4
:1059A0000D01819580930D0180910D01082E000C51
:1059B000990B080F191F003811050CF042C1109304
:1059C0000F0100930E0180918C021F928F9383E34D
:1059D00091E09F938F9388E892E09F938F930E942A
:1059E000E33381E00E94A60AEBE4FBE084910F9090
:1059F0000F900F900F900F900F908F0181112DC17C
:105A000082E00E94A60A08E812E0D8010D9000206A
:105A1000E9F78D0101501109A8E8EA2EA2E0FA2E5B
:105A2000E016F10608F420C180914103882371F04B
:105A300020912F04309130042115310539F08091E7
:105A4000B30261E070E0882309F415C1809140033E
:105A50008823A9F00E944C0C00913C0310913D0357
:105A600020913E0330913F03601B710B820B930B1F
:105A70006F3F7F4F8F4F9F4710F40E94D2102DA988
:105A800021110E94ED100E94840C9091B4028913A0
:105A90008093B40280912004843009F0E0CD83E04B
:105AA0008093E9008091E80082FFD9CD8091E800E1
:105AB00090E085FF0CC00E94D10A30E2E32EF12C69
:105AC0008E010F5F1F4F882309F4A9C191E08091D7
:105AD000E8008B778093E800992309F4C0CD00910A
