:100000000C94470C0C94640C0C94640C0C94640CCD
:100010000C94640C0C94640C0C94640C0C94640CA0
:100020000C94640C0C94640C0C949C150C94171B8D
:100030000C9420290C94640C0C94640C0C94640CA7
:100040000C94640C0C94640C0C94640C0C94640C70
:100050000C94640C0C9475160C94640C0C94640C45
:100060000C94640C0C94640C0C94640C0C94640C50
:100070000C94640C0C94640C0C94640C0C94640C40
:100080000C94640C0C94640C0C94640C0C94640C30
:100090000C94640C0C94640C0C94640C0C94640C20
:1000A0000C94640C0C94640C0C94640C0000000020
:1000B00000000000000000000000000000000080C0
:1000C000800000008080000000C020A020C0000050
:1000D0008040404080000000000000008080000060
:1000E0000080800000000000000000000000000010
:1000F0000000000000000000000000000000000000
:1001000000000000001E214047C8C8C84740219E8B
:1001100040217E007E111010137C027C13101020F1
:1001200020409E214047C8C8C84740211E0000000B
:1001300000000000000000000000000000000000BF
:1001400000000000000000000000000000000000AF
:10015000000304090A0AFEE1E0A0E0E0105050505C
:1001600010E0E0E0A0A0E0A0E0EAEBFA0A0A09044F
:10017000030000000000000000000000000000007C
:10018000000000000000000000000000000000006F
:100190000000000000000000000000000000070F49
:1001A00015151D0507070707070705050505050DB3
:1001B00015171F03000000000000000000000000F1
:1001C000000000000000000000000000000000002F
:1001D000000000000000000000000000000080405F
:1001E000C0000000C040800000E0103010E00000BF
:1001F000C020A020C00000000000008040C000001F
:1002000000C040800000000000000000000000006E
:1002100000000000000000000000000000000000DE
:1002200000000000000F102023E464E42320108F5E
:1002300040207F007F101010117E007E11101020D2
:1002400020408F102023E464E42320100F000000DE
:10025000000000000000000000000000000000009E
:10026000000000000000000000000000000000008E
:10027000000102040505FEE1E0A0E0E0105050504E
:1002800010E0E0E0A0A0E0A0E0EAEBFA0A0A09042E
:10029000030000000000000000000000000000005B
:1002A000000000000000000000000000000000004E
:1002B0000000000000000000000000000000070F28
:1002C00015151D0507070707070705050505050D92
:1002D00015171F03000000000000000000000000D0
:1002E000000000000000000000000000000000000E
:1002F000000000000000000000000000008040201E
:10030000E0000000E020408000E0103010E000003D
:1003100070881888700000000000C02010F00000F5
:1003200000F01020C00000000000000000000000ED
:1003300000000000000000000000000000000000BD
:10034000000000000007081011F23272919008C7F7
:1003500020103F003F080808083F003F0808081029
:100360001020C3040808F919F90808040300000064
:10037000000000000000000000000000000000007D
:10038000000000000000000000000000000000006D
:10039000000001020202FFE0E0A0E0E01050505037
:1003A00010E0E0E0A0A0E0A0E0E5E5FD0505040226
:1003B000010000000000000000000000000000003C
:1003C000000000000000000000000000000000002D
:1003D0000000000000000000000000000000070F07
:1003E00015151D0507070707070705050505050D71
:1003F00015171F03000000000000000000000000AF
:1004000000000000000000000000000000000000EC
:1004100000000000000000000000000000804020FC
:10042000E0000000E020408000E0105010E00000FC
:100430007088188870000000000000E01804021E98
:10044000020418E0000000000000000000000000AE
:10045000000000000000000000000000000000009C
:10046000000000000007081011F2327291908867B6
:1004700010081F001F040404041F001F04040408C4
:100480000890E08182443C8C7C0402010000000062
:10049000000000000000000000000000000000005C
:1004A000000000000000000000000000000000004C
:1004B000000001020202FFE0E0A0E0F088A8A8A886
:1004C00088F0E0E0A0A0E0A0E0E2E2FE020201008D
:1004D000000000000000000000000000000000001C
:1004E000000000000000000000000000000000000C
:1004F0000000000000000000000000000000070FE6
:1005000015151D0505050505050505050505050D5B
:1005100015171F030000000000000000000000008D
:1005200000000000000000000000000000000000CB
:1005300000000000000000000000000000008040FB
:10054000C0000000C040800000C020A020C000000B
:10055000C020A020C0000000000000F00C02010F2D
:1005600001020CF00000000000000000000000008C
:10057000000000000000000000000000000000007B
:1005800000000000000F102023E464E42320906F9B
:1005900010091E001E050404051E001E05040408A3
:1005A0000850604041229E463E02010000000000CB
:1005B000000000000000000000000000000000003B
:1005C000000000000000000000000000000000002B
:1005D000000102040505FFF0F0D0F0F8C4D4D4D433
:1005E000C4F8F0F0D0D0F0D0F0F1F1FF010100003C
:1005F00000000000000000000000000000000000FB
:1006000000000000000000000000000000000000EA
:100610000000000000000000000000000000070FC4
:1006200014141C0404040404040404040404040C4A
:1006300015171F030000000000000000000000006C
:1006400000000000000000000000000000000000AA
:10065000000000000000000000000000000000801A
:10066000800000008080000000804040408000004A
:1006700080404040800000000000000000000000BA
:10068000000000000000000000000000000000006A
:10069000000000000000000000000000000000005A
:1006A00000000000001E214047C8C8C84740219EE6
:1006B00040237C017C131010137C017C131010204C
:1006C000E010083840404040404040380810E0000A
:1006D000000000000000000000000000000000001A
:1006E000000000000000000000000000000000000A
:1006F000000304090A0AFEE1E0A0E0E010505050B7
:1007000010E0E0E0A0A0E0A0E0F7F6F6161616165E
:100710000E020202020100000000000000000000C2
:1007200000000000000000000000000000000000C9
:100730000000000000000000000000000000070FA3
:1007400015151D0507070707070705050505050D0D
:1007500015171F030000000000000000000000004B
:100760000000000000000000000000000000000089
:100770000000000000000000000000000000000079
:1007800000000000000000000000808080000000E9
:100790008040404080000000000000000000000099
:1007A0000000000000000000000000000000000049
:1007B0000000000000000000000000000000000039
:1007C00000000000003C42818F9090908F8142BCDD
:1007D0004027780278171010137C017C131010202A
:1007E0002040BC42818F9090908F81423C0000005D
:1007F00000000000000000000000000000000000F9
:1008000000000000000000000000000000000000E8
:10081000000305090A0AFEE1E0A0E0E01050505094
:1008200010E0E0E0A0A0E0A0E0EAEBFA0A0A090587
:1008300003000000000000000000000000000000B5
:1008400000000000000000000000000000000000A8
:100850000000000000000000000000000000030F86
:1008600015151D0507070707070705050505050DEC
:1008700015171F030000000000000000000000002A
:100880000000000000000000000000000000000068
:100890000000000000000000000000000080402078
:1008A000E0000000E020408000E0105010E0000078
:1008B000E0105010E00000000000804020E0000048
:1008C00000E0204080000000000000000000000068
:1008D0000000000000000000000000000000000018
:1008E000000000000007081011F232729190886732
:1008F00010081F001F040404041F001F0404040840
:100900000890E78890917232F211100807000000F9
:1009100000000000000000000000000000000000D7
:1009200000000000000000000000000000000000C7
:10093000000001020202FFF878687878C4D4D4D4A9
:10094000C4F878786868786878FAFAFE02020201DA
:100950000000000000000000000000000000000097
:100960000000000000000000000000000000000087
:100970000000000000000000000000000000010373
:10098000040A0B0F01010101010101010101030E24
:100990000A0B07010000000000000000000000003A
:1009A0000000000000000000000000000000000047
:1009B0000000000000000000000000000000804077
:1009C000C0000000C04080000070882888700000CF
:1009D000C0206020C00000000000008040C0000077
:1009E00000C0408000000000000000000000000087
:1009F00000000000000000000000000000000000F7
:100A000000000000000F102023E46464A3A0D03F86
:100A100008040F000F020202030E000E030202047C
:100A20000488FF90A0A36464E42320100F0000005A
:100A300000000000000000000000000000000000B6
:100A400000000000000000000000000000000000A6
:100A50000000010202027FFC3CB4BCBCE2EAEAEA0C
:100A6000E2FCBCBCB4B4BCB4BCFEFE7E020202011B
:100A70000000000000000000000000000000000076
:100A80000000000000000000000000000000000066
:100A90000000000000000000000000000000000056
:100AA0000101020203000000000000000003020236
:100AB0000101000000000000000000000000000034
:100AC0000000000000000000000000000000000026
:100AD0000000000000000000000000000000000016
:100AE0000000000000000000008040404080000046
:100AF0000080808000000000000000000000000076
:100B000000000000000000000000000000000000E5
:100B100000000000000000000000000000000000D5
:100B200000000000003C42818F9090908F8142BC79
:100B300040237C017C1310101778027817101020C6
:100B40002040BC42818F9090908F81423C000000F9
:100B50000000000000000000000000000000000095
:100B60000000000000000000000000000000000085
:100B7000000305090A0AFEE1E0A0E0E01050505031
:100B800010E0E0E0A0A0E0A0E0EAEBFA0A0A090524
:100B90000300000000000000000000000000000052
:100BA0000000000000000000000000000000000045
:100BB000000000000000000000000000000003072B
:100BC0000D15151D07070707070705050505050D81
:100BD00015171F07000000000000000000000000C3
:100BE0000000000000000000000000000000000005
:100BF0000000000000000000000000000080402015
:100C0000E0000000E020408000E0105010E0000014
:100C1000E0105010E00000000000804020E00000E4
:100C200000E0204080000000000000000000000004
:100C300000000000000000000000000000000000B4
:100C4000000000000007081011F2327291908867CE
:100C500010081F001F040404041F001F04040408DC
:100C60000890E78890917232F21110080700000096
:100C70000000000000000000000000000000000074
:100C80000000000000000000000000000000000064
:100C9000000001020202FF7878687878C4D4D4D4C6
:100CA000C4F878786868786878FAFAFE0202020177
:100CB0000000000000000000000000000000000034
:100CC0000000000000000000000000000000000024
:100CD00000000000000000000000000000000F08FD
:100CE0000A060301010101010101010101010102E3
:100CF000060B0B0F000000000000000000000000C9
:100D000000000000000000000000000000000000E3
:100D10000000000000000000000000000000804013
:100D2000C0000000C040800000C0206020C0000063
:100D300070882888700000000000008040C000001B
:100D400000C0408000000000000000000000000023
:100D50000000000000000000000000000000000093
:100D600000000000000F102023E46464A3A0D03F23
:100D700008050E000E030202020F000F0202020419
:100D80000488FF90A0A36464E42320100F000000F7
:100D90000000000000000000000000000000000053
:100DA0000000000000000000000000000000000043
:100DB0000000010202F20F8CBCB4BCBCE2EAEAEA19
:100DC000E2FCBCBCB4B4BCB43CFEFEFE8202020138
:100DD0000000000000000000000000000000000013
:100DE0000000000000000000000000000000000003
:100DF00000000000000000000000000000030202EC
:100E000001000000000000000000000000000000E1
:100E100001010202030000000000000000000000C9
:100E20000000000000000000000000000501098033
:100E3000A101850319012AB700150126B700950104
:100E400075108100C0050C0901A101850419012A52
:100E5000A002150126A002950175108100C00501B0
:100E60000906A1018506050719E029E715002501F6
:100E70009508750181020507190029EF1500250164
:100E800095F075018102050819012905950575017F
:100E90009102950175039101C00660FF0961A101EE
:100EA0000962150026FF0095207508810209631567
:100EB0000026FF00952075089102C005010906A1D2
:100EC00001050719E029E71500250195087501813D
:100ED000029501750881010507190029FF150026F3
:100EE000FF0095067508810005081901290595057B
:100EF00075019102950175039101C0000000000089
:100F000000000000000000000000000000000000E1
:100F10000000000000000000000000000000007E53
:100F20000F00D4FFFFFFC7000000780000000000A2
:100F30000000002A2B280000000000000000000034
:100F400000000000000029000000002C1E342021B9
:100F50002224342627252E362D3738271E1F202100
:100F600022232425263333362E37381F040506075F
:100F700008090A0B0C0D0E0F101112131415161779
:100F800018191A1B1C1D2F3130232D350405060797
:100F900008090A0B0C0D0E0F101112131415161759
:100FA00018191A1B1C1D2F3130354C00DA0281FF35
:100FB000D9F1DB20A4A62EAF00A0C000A1C800AECE
:100FC000D580A81FD300408D14200057504D00FD40
:100FD000377A585A000004E6D6B4460200210116BA
:100FE000000000742FE5A3E0024601065D003D8885
:100FF00089C65436C3174FE4F2D1ED93B70738C80A
:1010000023D7100F220E57676A3D8B303617E03E0C
:10101000D5CB17D32AA3B005F44744C4DA9659B206
:101020003560DD2C9D362530AF11B8273EA8208DC8
:10103000D1AED7AB998BEFC8ACFBA599E73930C0DF
:1010400047359EC90A0963E1C720F07868D57CE27C
:1010500088FCB2F3B1B15ADAF947B4927C7802F85D
:10106000A8836FDF6B3401B648F1B155897D87D411
:101070004A7FD757681450A92B8253D2EB5A16DAFD
:1010800030377DAFC6834DEF527C86A88EE1059B3D
:101090005A0ED547AB95A20C6E1AAD4A9A9AE945FD
:1010A000090E322DF9A076E2FCDE5367AFD8952306
:1010B00023FC2C69EB28DD7CEF57E07C6999AC457B
:1010C000D421D2EE375AAE806911570447C5E23AAF
:1010D00013CDF35FF01FEF6FE575C1AB593BFDEF2B
:1010E000734B3CDFD8D34CA61597F5A1CF5346D60A
:1010F000C1218E00000000E4728D35132372E900D7
:1011000001A202C70400003B49D201B1C467FB023F
:101110000000000004595A290014001A00080015A4
:101120000017002B0004001600070009000A00E168
:10113000001D001B00060019000500E000E200E3AE
:101140000001512C002C001C0018000C0012001390
:10115000002A000B000D000E000F003300280011C4
:10116000001000360037003800520002513900509C
:101170000051004F000000290014001A000800155B
:101180000017002B0004001600070009000A00E108
:10119000001D001B00060019000500E000E200E34E
:1011A0000001512C002C001C0018000C0012001330
:1011B000002A000B000D000E000F00330028001164
:1011C000001000360037003800520002513900503C
:1011D0000051004F000000290014001A00080015FB
:1011E0000017002B0004001600070009000A00E1A8
:1011F000001D001B00060019000500E000E200E3EE
:101200000001512C002C001C0018000C00120013CF
:10121000002A000B000D000E000F00330028001103
:1012200000100036003700380052000251390050DB
:101230000051004F000000290014001A000800159A
:101240000017002B0004001600070009000A00E147
:10125000001D001B00060019000500E000E200E38D
:101260000001512C002C001C0018000C001200136F
:10127000002A000B000D000E000F003300280011A3
:10128000001000360037003800520002513900507B
:101290000051004F00000000AF00AE09025B0003E8
:1012A0000100A0FA09040000010301010009211155
:1012B0000100012240000705810308000109040123
:1012C0000002030000000921110100012222000791
:1012D0000582032000010705030320000109040221
:1012E000000103000000092111010001226D000727
:1012F0000584032000011201000200000008071904
:1013000022200100010203011C0376006900610034
:101310006C003A0066003600340063003200620060
:101320003300630000000C0368007500790034008E
:101330003800000014036800750079006B0061003C
:1013400061006D00610061000000040309040708EA
:101350007F0807003E5B4F5B3E003E6B4F6B3E00DD
:101360001C3E7C3E1C00183C7E3C18001C577D57E0
:101370001C001C5E7F5E1C0000183C180000FFE78C
:10138000C3E7FF00001824180000FFE7DBE7FF00B9
:1013900030483A060E00262979292600407F0505A7
:1013A0000700407F05253F005A3CE73C5A007F3E3E
:1013B0001C1C0800081C1C3E7F0014227F22140005
:1013C0005F5F005F5F0006097F017F00006689950F
:1013D0006A0060606060600094A2FFA2940008044C
:1013E0007E04080010207E20100008082A1C080037
:1013F000081C2A0808001E10101010000C1E0C1EDD
:101400000C0030383E383000060E3E0E060000005C
:101410000000000000005F0000000007000700005F
:10142000147F147F1400242A7F2A120023130864D7
:101430006200364956205000000807030000001CD7
:10144000224100000041221C00002A1C7F1C2A00AF
:1014500008083E08080000807030000008080808EE
:1014600008000000606000002010080402003E51E7
:1014700049453E0000427F4000007249494946000C
:101480002141494D33001814127F1000274545456E
:1014900039003C4A494931004121110907003649C8
:1014A00049493600464949291E0000001400000041
:1014B00000403400000000081422410014141414E9
:1014C00014000041221408000201590906003E419F
:1014D0005D594E007C1211127C007F49494936004B
:1014E0003E41414122007F4141413E007F494949FF
:1014F00041007F09090901003E41415173007F0805
:1015000008087F0000417F4100002040413F01006A
:101510007F08142241007F40404040007F021C02AF
:101520007F007F0408107F003E4141413E007F095B
:10153000090906003E4151215E007F091929460034
:1015400026494949320003017F0103003F404040E2
:101550003F001F2040201F003F4038403F006314E1
:10156000081463000304780403006159494D4300E3
:10157000007F414141000204081020000041414128
:101580007F0004020102040040404040400000038C
:10159000070800002054547840007F284444380055
:1015A000384444442800384444287F003854545474
:1015B000180000087E09020018A4A49C78007F0887
:1015C0000404780000447D4000002040403D0000BD
:1015D0007F102844000000417F4000007C04780414
:1015E00078007C0804047800384444443800FC182F
:1015F0002424180018242418FC007C080404080083
:1016000048545454240004043F4424003C404020E7
:101610007C001C2040201C003C4030403C00442802
:10162000102844004C9090907C004464544C44003A
:101630000008364100000000770000000041360835
:1016400000000201020402003C2623263C000000A8
:1016500000000000404040F0F8F8FF38FFF8F83F85
:10166000F8F8FF38FFF8F8F04040400000000000B4
:101670000080C0C0C0800000C0C08000000080C0EA
:10168000C000C0C0000080C0C00000000000C0C09A
:10169000C0C0C000C0C0000000000000000000008A
:1016A000000000000000000000000000000000003A
:1016B000000000000000000000000000000000002A
:1016C00000000000000000000000000000C0F0F872
:1016D000FC3E1E06010000007F4141417F007F412A
:1016E00041417F000080C0E07E5B4F5BFEC0000098
:1016F000C000DCD7DEDEDED7DC00C000000000006A
:1017000000000000000000000000000000000000D9
:1017100000000000494949FFFFFFFFE0DFBFBF00B5
:10172000BFBFDFE0FFFFFFFF4949490000000000A5
:101730001F3F6060E0BF1F007F7F071E381E077FCE
:101740007F007F7F0E1F3B716000000000007F7FE5
:101750000C0C0C007E7E007F7E0303007F7E030363
:101760007E7E03037F7E000F3E703C063C703E0F82
:1017700000327B49493F7E007F7E0303001E3F69A4
:10178000696F2600000000000000000000030F1F2A
:101790003F3C7870600000007F4141417F007F4105
:1017A00041417F00307B7F7830202030787F3B00C4
:1017B00003000F7F0F0F0F7F0F00030000000000DA
:1017C0000000000000000000000000000000000019
:1017D00000000000010101070F0F7F0F7F0F0F7E38
:1017E0000F0F7F0F7F0F0F070101010000000000A6
:1017F00000000000000101000000000000000000E7
:1018000000000000000000000000000000000000D8
:1018100000000000000000000000000000000000C8
:1018200000000000000000000000000000000000B8
:1018300000000000000000000000000000000000A8
:101840000000000000000000000000000000000098
:101850000000000000000000000000000000000088
:101860000000000000000000000000000000000078
:101870000000000000000000000000000000000068
:101880000000000000000000000000000000112423
:101890001FBECFEFDAE0DEBFCDBF11E0A0E0B1E0C8
:1018A000EAE5FBE602C005900D92A639B107D9F72B
:1018B00026E0A6E9B1E001C01D92A731B207E1F729
:1018C0000E9447290C9487350C94000090910C04D9
:1018D000899FC0011124815F9B4F909316068093CE
:1018E00015060895E8EDF0E080818E7F80831092E8
:1018F000E2001092DA001092E100A0EEB0E08C91CC
:1019000081608C9380818F77808319BCA7EDB0E0D4
:101910008C918E7F8C9380818F7E80831092D903EF
:1019200008952091E4003091E50095E6A901209109
:10193000EC00822F817020FF06C08091E80080FFBC
:1019400006C080E008952091E80022FD1AC0809131
:10195000FE03882389F0853089F08091EB0085FDB6
:101960000FC02091E4003091E50042175307F9F2CF
:101970009150E1F684E0089582E0089583E00895AF
:1019800081E00895EF92FF920F931F93CF937C0114
:101990008B010E94910CC82F811117C08091E80023
:1019A00085FD0BC08091E8008E778093E8000E944F
:1019B000910C882399F3C82F08C0F70181917F010A
:1019C0008093F1000150110949F78C2FCF911F919D
:1019D0000F91FF90EF9008958091000487FF13C04E
:1019E0008091E80082FF06C08091E8008B778093A9
:1019F000E80004C08091FE038111F2CF0895809128
:101A0000FE038823D9F38091E80080FFF8CF80910E
:101A1000E8008E77ECCF982F9093E900242F762F53
:101A200050E0891731F07091EC002091ED00509159
:101A3000F00021FD07C09F5F973071F78093E900A8
:101A400081E008953091EB003E7F3093EB003091C0
:101A5000ED003D7F3093ED003091EB00316030932D
:101A6000EB007093EC002093ED005093F000209178
:101A7000EE0027FDE0CF80E00895B0E0A0E0E3E4D1
:101A8000FDE00C94C131C8EDD0E088818F7E888361
:101A9000E7EDF0E080818160808384E082BF81E0B7
:101AA0008093D90388818E7F888302EE10E0F8014D
:101AB00010821092DA0081EEC82ED12CF60110822D
:101AC00088818F77888388818068888388818F7DEB
:101AD000888319BC1092FE031092FF031092FD033D
:101AE0001092FC0390EEE92EF12CF70180818B7FA0
:101AF000808388818160888342E060E080E00E948A
:101B00000B0DF60180818E7F8083F80180818160DA
:101B10008083808188608083F70180818E7F8083CD
:101B2000888180618883CDB7DEB7E8E00C94DD3131
:101B3000FC01809106049091070486179707A0F096
:101B40006115710529F49091E8009E779093E80063
:101B500090E06115710551F4911108C08091E80081
:101B600082FF34C080E00895BC01F2CF8091FE0373
:101B70008823C1F18530C1F18091E80083FD30C038
:101B80008091E80082FDEACF8091E80080FFE1CFFC
:101B90008091F3002091F200382F6115710519F042
:101BA0002830310558F091E02830310509F090E0F7
:101BB0002091E8002E772093E800CBCF819180938D
:101BC000F100615071092F5F3F4FE7CF8091FE0315
:101BD000882341F0853041F08091E80083FFBECF3B
:101BE00081E0089582E0089583E0089508950895BE
:101BF0008091DB03089587E797E79093010880932E
:101C0000000888E19AE00FB6F894A89580936000E8
:101C10000FBE90936000FFCF2FB7F8946091D00370
:101C20007091D1038091D2039091D3032FBF089577
:101C30002091CD033091CE032817390771F090938E
:101C4000CE038093CD03E091CB03F091CC0330978A
:101C500021F00084F185E02D099508952091C903B4
:101C60003091CA032817390771F09093CA03809303
:101C7000C903E091CB03F091CC03309721F00680AB
:101C8000F781E02D09950895E091CB03F091CC0305
:101C9000309729F00190F081E02D0995089580E0BA
:101CA0000895DC016091C5038091C603962F8913C6
:101CB00001C00895292F30E0F901EE0FFF1FE35412
:101CC000FC4F408151814A175B07A1F487E08A9F4E
:101CD000A0018B9F500D11244B575C4F81E0FA01FE
:101CE00084839613E6CF2F5F3F4F237033272093D3
:101CF000C50308952F5F3F4F922F9370D8CF109256
:101D0000210310922003E5E8F3E08581811102C0F0
:101D100014821682379683E0ED3BF807B1F70895F9
:101D2000FB01E15FFB4F90819817B9F0808385E05C
:101D3000769567958A95E1F721E030E002C0220FA1
:101D4000331F6A95E2F780910D0490910E04822B67
:101D5000932B90930E0480930D04089580E00895D2
:101D6000F894E82FE295EF70F0E031A1282F2F7062
:101D700081E090E001C0880F2A95EAF7982F9095AE
:101D8000932391A392A1892B82A378940895909193
:101D9000D40392FF06C0282F28712830F9F4877FDA
:101DA000846093FF06C0282F28712831F1F4877EC4
:101DB00084612091D50320FF06C0382F3871383058
:101DC000D9F4877F816021FF06C0282F2871283130
:101DD000D1F4877E816194FD877E0895282F247138
:101DE0002430F9F68B7F8860DCCF282F24712431D2
:101DF00001F78B7E8861DDCF382F3171313019F7D3
:101E00008E7F8860E0CF282F2171213121F78E7ECF
:101E10008861E1CFCF93DF93EC0182389105A9F17E
:101E2000D8F58133910509F496C048F589329105BA
:101E300009F48AC08A9709F495C0C11522E5D20732
:101E400008F0B6C0C11531E5D30708F026C1C83E79
:101E5000D10508F09CC0C03ED10560F5C83AD10557
:101E600008F087C0C53AD10508F0EFC0C130D105F0
:101E700009F12097F9F0C430D105E0F440C0853372
:101E8000910509F45AC0C997C1F68091D4038370B3
:101E900089F0C0EED0E00EC0833E910599F170F458
:101EA000803E910501F1823E910539F68091D4037F
:101EB00082FD21C0CE01DF91CF910895863E91052C
:101EC00061F1873E910571F1843E910509F0B5CF2E
:101ED0008091D50381FFEECF8091D403C7EED0E08F
:101EE00084FD0DC0E7CF8091D40380FD07C19091A0
:101EF000D50390FFDFCFC3EED0E084FFDBCFD0E08F
:101F0000C0E0D8CF8091D40382FDFBC09091D5036F
:101F100090FDBFCF84FFCECFF2CF8091D40383FD5D
:101F2000DDCFC8CF8091D40383FDEEC09091D5035F
:101F300091FFF0CFC4EED0E0BDCF8091D40385FFF8
:101F4000B9CFC9E2D0E0B6CF8091D40385FFB2CF3C
:101F5000C5E3D0E0AFCF8091D40386FFABCFCAE218
:101F6000D0E0A8CF8091D40386FFA4CFC1E3D0E016
:101F7000A1CFCF3BD10518F6C85AD0E0CC0FDD1F5A
:101F8000CD5BDE4F0990D881C02DD46493CFC115AD
:101F900040E5D40708F064C0C11580E4D80708F014
:101FA0005CC0CE019A9581159F4108F483CFA7CFDD
:101FB000C11536E5D30718F5C11545E5D40708F076
:101FC00084C0C11584E5D80708F07AC09C2F969587
:101FD00096959E0123703327C115D34508F462C03E
:101FE000C1E0D0E002C0CC0FDD1F2A95E2F730E25D
:101FF000939FC0011124C82BD92BDA685BCFC11580
:102000008AE5D80778F4C11599E5D90708F068C0C2
:10201000C11528E5D20708F472CFDC2FCC27C06F9A
:10202000D06A48CFCE0190568115904208F067CF14
:102030008D2F8F710E94C70E90E0982F88278827D8
:102040009F719C012C2BE90149C0C55AD0E0C05CAE
:10205000DE4FC881D0E0D0642DCFDF70D06A2ACFA8
:10206000CE01E4E096958795EA95E1F783702C2FF1
:1020700026952695237040E2249F90011124382B49
:102080008C2F8370C1E0D0E002C0CC0FDD1F8A9599
:10209000E2F7C22BD32BDC680DCFDC2FCC27C16F2E
:1020A000D06A08CFC1E0D0E002C0CC0FDD1F2A9576
:1020B000E2F720E2929FC0011124C82BD92BEBCF6D
:1020C000DC2FCC27C46FD06AF5CE8C2F0E94C70EB0
:1020D000C82FD0E0DC2FCC27CC27DF71D062EACE2E
:1020E0008C2F8F700E94C70E34E0D695C7953A9515
:1020F000E1F7CF709C2FEC01D069DCCEC9E3D0E0D2
:10210000D9CEC2EED0E0D6CEC6EED0E0D3CE80910E
:102110003C02882331F010923C0210923B02109254
:102120003A0208958095909139029823909339024C
:102130000895109218021092170210921602089534
:10214000909132019923D1F09091D40397FF16C05A
:10215000E82FE695E695E695EE31E0F4F0E0E856F6
:10216000FE4F282F277081E090E001C0880F2A954C
:10217000EAF780959281892382830895EAE9F1E064
:102180009191891303C0DF0111971C9291E0E03A0D
:10219000F907B1F70895909132019923C1F0909118
:1021A000D40397FF14C0E82FE695E695E695EE3147
:1021B000F8F4F0E0E856FE4F877021E030E001C00F
:1021C000220F8A95EAF78281822B82830895AAE9F9
:1021D000B1E0EFEF90E02D91821751F0EF3F19F44D
:1021E000211101C0E92F9F5F9630A9F7EF3F09F455
:1021F00008950E2E000CFF0BE856FE4FE6CF80919F
:1022000015029091D401981301C008958F5F8770D3
:10221000FACF292F983078F5863068F590E036E0CF
:10222000239F800D911D1124682F677023E09695E0
:1022300087952A95E1F7FC01EE0FFF1FE80FF91FC4
:10224000E654FE4F50E040E080E0219130E0062E61
:1022500002C0369527950A94E2F721703327042EA1
:1022600001C0220F0A94EAF7822B4F5F5F4F433081
:10227000510559F7089580E00895292F983098F571
:10228000863088F590E036E0239F800D911D112463
:10229000282F277041E001C0440F2A95EAF723E078
:1022A000969587952A95E1F7FC01EE0FFF1FE80F41
:1022B000F91FE654FE4F30E020E070E05191DF015D
:1022C0001197CB01022E02C0969587950A94E2F7EA
:1022D000817081958527842385278C932F5F3F4FBD
:1022E0002330310559F708959C013A9521153F4156
:1022F00050F5FC01EE27F170BC0166277270AC014D
:10230000442754709C012227387094FF0EC080E14E
:10231000EF2B09F480E0672B09F08062452B09F070
:102320008064232B89F08068089581E0EF2B09F405
:1023300080E0672B09F08260452B09F08460232B35
:1023400019F08860089580E00895CF93DF93C091DD
:102350001506D09116068A30C1F420910C04CE01E6
:102360008F509440622F70E00E94A331281B822F6F
:1023700066E00E94EE31C82FC15018F4DF91CF9172
:10238000089580E20E94A511F7CF8D30E9F4CF5077
:10239000D44020910C04622F70E0CE010E94A33142
:1023A000281B822F9E01280F311D2115324018F065
:1023B00080E0D0E0C0E0C80FD11DC15FDB4FD093FB
:1023C0001606C0931506DACF96E0FE01AFE0B6E040
:1023D00001900D929A95E1F7803E08F458C086E08E
:1023E000FE0111928A95E9F7C0911506D091160663
:1023F00046E050E0BE018FE096E00E9487329E01E9
:102400002F503440892B41F1C90145E096958795BD
:102410004A95E1F741E050E0BA0102C0660F771F2C
:102420008A95E2F7CB0160910D0470910E04862B22
:10243000972BB9016B5F7F4FE5E076956795EA953D
:10244000E1F702C0440F551F6A95E2F7842B952BE4
:1024500090930E0480930D042A5F3F4F40910C042B
:10246000642F70E0C9010E94A331481B463010F46C
:10247000240F311D211572E0370710F030E020E005
:10248000215F3B4F309316062093150677CFF6E079
:102490008F9FB0011124625B7C4E46E050E0CE017C
:1024A0000E947E32A1CFB0E0A0E0E9E5F2E10C9419
:1024B000C1316C017B0164E670E088E70E94BA30AC
:1024C000EC0197FD12C010E000E0F601E00FF11FF3
:1024D000849164E670E00E942831EC01892B29F494
:1024E0000F5F1F4F0E151F0581F70E949F31CE0110
:1024F000CDB7DEB7E8E00C94DD3180911E039091FA
:102500001F03911103C091E089270895882369F082
:1025100062E070E089E992E10E945312892B19F080
:1025200080911E03089510921E0380911E03EBCF2D
:10253000CF93C0911E0380911F038823D1F00E9486
:102540000C0E605A75418F4F9F4F60931A03709322
:102550001B0380931C0390931D03C11108C062E00C
:1025600070E087E992E10E945312892B29F0C09113
:102570001E038C2FCF91089581E080931E03F7CF27
:102580008093D6037093D8036093D7038091FE03A2
:102590008430F9F48093E9008FEF9091E800815046
:1025A00095FD06C095ED9A95F1F700008111F5CFE4
:1025B0008091E80085FF0DC050E040E063E070E0EE
:1025C00086ED93E00E94C20C8091E8008E778093A4
:1025D000E8000895BC0184E00E94C0120895BC0187
:1025E00083E00E94C0120895CF93DF93EC018091A5
:1025F00032018823B1F18091D40387FF32C060E2B9
:1026000084E08093E9008FEF9091E800815095FD80
:1026100006C095ED9A95F1F700008111F5CF8091F4
:10262000E80085FF1BC08091320170E050E040E07F
:10263000811104C050E040E068E070E0CE010E94EB
:10264000C20C8091E8008E778093E80080E2FE0162
:10265000ACEDB3E001900D928A95E1F7DF91CF9157
:10266000089568E081E0CDCFCF93DF93C7EFD1E04D
:1026700060E0CE010E944B352196C11584E0D80759
:10268000B9F7DF91CF9108951F93CF93DF93122F66
:102690008430E0F46830D0F44630C0F4C42FD0E089
:1026A000CC0FDD1F9CE0699FC00DD11D112490E669
:1026B000899FC00DD11D1124632FCE0187960E94E2
:1026C0004B35612FCE0188960E944B35DF91CF911B
:1026D0001F910895CF93C82F6FEF811160EB83E2B4
:1026E00090E00E944B356FEFC1116FE784E290E0FC
:1026F0000E944B356FEFC1116CE785E290E00E94BC
:102700004B35CF910895AAE0B0E0E9E8F3E10C94ED
:10271000BC31A0902F01B090300181E090E0909307
:10272000300180932F0187E1C82E81E1D82E00E08F
:10273000760110E015C0F40125913491472D612FE9
:10274000802F0E94441382E0880E911C739496E0BF
:102750007912F1CFECE0EE0EF11C1F5F183019F08A
:102760004701712CE8CF0F5FF0E6CF0ED11C04308B
:10277000F9F6CE0101967C018AE0F70111928A9563
:10278000E9F707EA11E04AE050E0B801C7010E940A
:102790006F35065F1F4F073FF1E01F07A1F7B092AB
:1027A0003001A0922F012A96EDE00C94D83180E000
:1027B0000E946A1360E086E290E00E944B350E941E
:1027C00083130E94341381E00E946A1308950F93CB
:1027D0001F93CF93DF93843030F5683020F5463077
:1027E00010F5C42FD0E0CC0FDD1F2CE0629FC00D90
:1027F000D11D112430E6839FC00DD11D1124CE01BF
:1028000087960E943D35082F10E0102F0027CE013B
:1028100088960E943D359801282BC901DF91CF9100
:102820001F910F91089590E080E0F8CF462F2091FE
:10283000180330911903232B99F4703F39F4603F4A
:1028400079F480911603909117030895843040F431
:10285000783030F4663020F4672F0E94E713089533
:1028600090E080E00895CF92DF92FF920F931F9344
:10287000CF93DF936C010091080480913D02082BF7
:10288000C7E0D0E010E0FC2EC8010C2E02C09595E8
:1028900087950A94E2F780FD0CC02197A0F7F12CF0
:1028A0008F2DDF91CF911F910F91FF90DF90CF90EF
:1028B0000895B6018C2F0E9416140E940A0F0197EA
:1028C00061F3EECFCF93DF93EC010E943314BE018E
:1028D0000E9416140E940A0FDF91CF910895FC0107
:1028E00086819781009791F00E940A0F92959F70C0
:1028F0009630B9F080F4925F9F70923080F4803F00
:1029000019F058F4883E58F481E00895808191814F
:102910000E946214EBCF9A5FEFCF843FA9F380E06F
:102920000895883E88F3813FD1F7EECFA5E0B0E06F
:10293000ECE9F4E10C94C6319C01FC01868197819D
:102940000097E1F485E0DE01119601900D928A95E1
:10295000E1F7F901228189819A81222399F0662386
:1029600089F00E943314182F682F89819A810E9460
:102970003D1169817A81812F0E9416142596E3E02A
:102980000C94E2310E940911182FF3CF83E290E0FA
:102990000E943D35803B89F484E290E00E943D3501
:1029A0008F3759F485E290E00E943D3591E08C37F5
:1029B00009F090E0892F8170089580E0FCCFCF93DB
:1029C00084E090E00E943D35C82F82E290E00E94B2
:1029D0003D35982F8C2FCF910895AAE0B0E0E3EF1A
:1029E000F4E10C94C131E6ECF2E080E5DF011D92E8
:1029F0008A95E9F7E5E8F3E088E3DF011D928A951F
:102A0000E9F786ECC82E82E0D82E7F0107EA11E0B4
:102A1000F701D182C0824AE050E0B801CE010196B0
:102A20000E942D3588E0FE013196D60101900D926D
:102A30008A95E1F789859A85D70113969C938E93A1
:102A40001297BAE0CB0ED11CE7E0EE0EF11C065F48
:102A50001F4F073FF1E01F07D9F62A96E8E00C94D4
:102A6000DD3168EE7EEF90E080E00E94693560E045
:102A700082E090E00E944B3560E083E090E00E94AD
:102A80004B3510923D0260E084E090E00E944B35AF
:102A900064E082E290E00E944B3560E085E090E0E7
:102AA0000E944B3560E086E090E00E944B356FEF6E
:102AB00087E090E00E944B3540E050E0BA0188E0AA
:102AC00090E00E945D3560E08DE090E00E944B3523
:102AD00040E050E0BA0188E190E00E945D3560E09E
:102AE00087E190E00E944B3540E050E0BA018CE174
:102AF00090E00E945D3570E060E080E290E00E942E
:102B0000693540E050E0BA0188E190E00E945D350F
:102B100080E00E946A130E94D71340E050E0BA019F
:102B20008FE090E00E945D3540E050E0BA0183E123
:102B300090E00E945D3508951F920F920FB60F929C
:102B400011242F933F934F935F936F937F938F93B2
:102B50009F93AF93BF93EF93FF938091E10082FF28
:102B600009C08091E20082FF05C08091E1008B7F67
:102B70008093E1008091DA0080FF24C08091D8002A
:102B800080FF20C08091DA008E7F8093DA008091F0
:102B9000D90080FF9DC080E189BD82E189BD09B473
:102BA00000FEFDCF81E08093FE038091D903811167
:102BB00009C00E94720C0E943D0D8091E200846069
:102BC0008093E2008091E10080FF17C08091E200D5
:102BD00080FF13C08091E2008E7F8093E20080919D
:102BE000E20080618093E2008091D800806280934F
:102BF000D80019BC85E08093FE038091E10084FF3A
:102C00002BC08091E20084FF27C080E189BD82E172
:102C100089BD89B5982F917080FFFBCF8091D80036
:102C20008F7D8093D8008091E1008F7E8093E100BA
:102C30008091E2008F7E8093E2008091E2008160CB
:102C40008093E2008091FF03882309F447C084E069
:102C50008093FE038091FE038091E10083FF27C0F3
:102C60008091E20083FF23C08091E100877F809301
:102C7000E10082E08093FE031092FF038091E10067
:102C80008E7F8093E1008091E2008E7F8093E2004E
:102C90008091E20080618093E20042E060E080E0A9
:102CA0000E940B0D8091F00088608093F000FF91EE
:102CB000EF91BF91AF919F918F917F916F915F91B4
:102CC0004F913F912F910F900FBE0F901F9018952D
:102CD00019BC1092FE031092D90374CF8091E300C7
:102CE00087FD93E09093FE03B5CF78941F921FB6B3
:102CF0001F9211248F939F93AF93BF938091D00322
:102D00009091D103A091D203B091D3030196A11D5C
:102D1000B11D8093D0039093D103A093D203B093BD
:102D2000D303BF91AF919F918F911F901FBE1F90B2
:102D300018959C014FB7F8948091D0039091D103DE
:102D4000A091D203B091D3034FBF821B930B089580
:102D50002FB7F8948091D0039091D103A091D20322
:102D6000B091D3032FBF0895A8E0B0E0EAEBF6E1FD
:102D70000C94BC318E010F5F1F4F88E0F801119257
:102D80008A95E9F781E7C82E81E0D82EF12CE12C55
:102D9000AA24A394B12C2FE7822E21E0922EF601D3
:102DA00081916F018F3F09F442C0F894E82FE295BA
:102DB000EF70F0E021A18F70A50102C0440F551FF4
:102DC0008A95E2F7CA01922F982B91A392A1809540
:102DD000892382A3789400C0E9E7F1E0712C31E007
:102DE00021912F3F09F45FC0A22FA295AF70B0E0F0
:102DF00090968C9190E02F7002C0959587952A95BA
:102E0000E2F780FD50C0832F782A330F8E169F067D
:102E100039F7F601319780818F3F11F00E94B00E93
:102E200050EA5A95F1F7F801EE0DFF1D70828FEF11
:102E3000E81AF80AE8E0EE16F10409F0B0CF48E02D
:102E400050E0B80181E492E00E948732FF24F394BD
:102E5000009709F4F12C892B41F188E0F801A1E4F5
:102E6000B2E001900D928A95E1F781E080934002F3
:102E70000E94A81690933F0280933E0280913E02EA
:102E800090913F020E949916059798F0E1E4F2E0D4
:102E9000AEEBB2E081918D9342E0E934F407D1F7D3
:102EA0001092400206C080E0AFCF809140028111B5
:102EB000E5CF8F2D2896EDE00C94D8318091390222
:102EC00090912203892B8093980180913C02882362
:102ED00029F10E94A81620913A0230913B02821BF0
:102EE000930B8838934110F00E94871080919801CD
:102EF00090913C02892B8093980180913201882324
:102F0000E1F18091D40387FF38C08EE1EAE9F1E076
:102F100090E08150A0F591110E94871040E250E0AE
:102F200069E172E088E991E00E948732892B21F102
:102F300080E2E8E9F1E0A9E1B2E001900D928A9522
:102F4000E1F7E091CB03F091CC033097A9F08091A9
:102F50003201882359F08091D40387FF07C0809104
:102F600098018093990186E0809398010280F38113
:102F7000E02D88E991E00995089586E0C7CF219179
:102F8000222339F29F5FC5CF90E080E00E942E0E91
:102F900090E080E00E94180E109222030E945E17BB
:102FA0000895809308040E94C4170895809108042E
:102FB000982F9670963021F488600E94D11708955A
:102FC000877FFBCF21E030E001C0220F8A95EAF72E
:102FD00020958091080482230E94D1170895909132
:102FE00018028095892380931802282F277091F466
:102FF000282F082E000C330B9217130659F09091CE
:10300000D50392FF07C08595859585950E94E217A7
:103010000E9499100895CF93C091D503C2FB9927C0
:1030200090F9981791F080FBC2F9C093D503609195
:10303000D40384E090E00E944B356C2F82E290E054
:103040000E944B3582E00E94EF17CF91089521E056
:1030500030E001C0220F8A95EAF780910804822BA4
:103060000E94D117089580933D020E94C4170895CD
:103070001092390280913201EAE9F1E0882361F08F
:103080008091D40387FF08C08EE1DF011D928A95ED
:10309000E9F70E94C417089586E0F7CFAAE2B0E0EE
:1030A000E4E5F8E10C94C63180E094E02091F10071
:1030B000DC012D93CD01B4E088309B07B9F78091F6
:1030C0000104833009F472C0B8F4813009F449C0B6
:1030D000823009F4B3C08091E80083FF96C28091EA
:1030E0000004909101049A3008F08FC2E92FF0E0BB
:1030F000E757FA4C0C944F328A3009F48EC08B306B
:1031000009F471C0893039F780910004813219F7D0
:103110008091040490910504009711F00297D9F66C
:103120008091E800877F8093E8008091E80082FF2B
:1031300038C09091F3008091F200029731F48091B1
:10314000F100813011F0863021F48091F1008093FC
:10315000DB038091E8008B778093E8000E94EC0C01
:10316000BACF80910004813A09F0B5CF8091E80090
:10317000877F8093E8008091040490910504892B57
:1031800061F460E28CED93E070E00E94980D809114
:10319000E8008B778093E8009ECF60E090E080E0CD
:1031A000F3CF8091FE038111C0CF95CF80910004B1
:1031B000813A09F090CF8091040490910504892B05
:1031C00009F089CF8091E800877F8093E8008091A3
:1031D000E80080FFFCCF809132018093F100809164
:1031E000E8008E77B9CF80910004813209F073CF67
:1031F0008091040490910504892B09F06CCF809193
:10320000E800877F8093E8000E94EC0C8091020424
:10321000809332010E9438185ECF80910004813281
:1032200009F059CF8091E800877F8093E8000E94E1
:10323000EC0C809103048093DA034DCF809100045D
:10324000813A09F048CF8091E800877F8093E800B9
:103250008091E80080FFFCCF8091DA03BECF8038F8
:1032600099F0823809F0D1C1809104048F708730C1
:1032700008F0CBC18093E9008091EB0085FB8827A3
:1032800080F91092E90006C08091FC039091FD0343
:10329000911182609091E800977F9093E80080936D
:1032A000F1001092F1008091E8008E77AAC1882386
:1032B00009F498C1823009F0A8C1809102048111FB
:1032C0009BC1809104048F702FEF280F263008F0E7
:1032D0009CC18093E9002091EB0020FF8DC19330C9
:1032E00031F48091EB0080628093EB0085C1909176
:1032F000EB0090619093EB0021E030E001C0220FE1
:103300008A95EAF72093EA001092EA008091EB0098
:103310008860EACF811179C1109102041F778091F2
:10332000E3008078812B8093E3008091E800877F21
:103330008093E8000E94EC0C8091E80080FFFCCFB5
:103340008091E30080688093E30082E0111183E0C4
:103350008093FE035AC18058823008F056C12091F4
:103360000204309103042C3DE3E03E07A1F583E025
:103370008A838AE289834FB7F894DE01139620E0AE
:103380003EE051E2E32FF0E050935700E49120FF3C
:1033900003C0E295EF703F5FEF708E2F90E0EA3050
:1033A000C0F0C7968D939D932F5F243159F74FBF7F
:1033B0008091E800877F8093E8006AE270E0CE01A8
:1033C00001960E94980D8091E8008B778093E80029
:1033D0001CC1C096E7CF8091040490910504432F4F
:1033E00055274330510509F44AC078F5413051055D
:1033F00009F485C08BE590E0EBE9F2E1423051053C
:1034000009F003C12091E800277F2093E800209174
:103410000604309107048217930708F49C0140E0EA
:103420002115310509F070C041116EC08091E8008E
:1034300082FDC9CF8091FE03882329F2853019F2DD
:103440008091E80083FFF2CFBECF4132510509F4ED
:1034500047C04232510509F0D8C08330910508F0C9
:10346000D4C0FC01EE0FFF1FE657FE4F0190F08124
:10347000E02D89579E4FDC018C9190E01DC03327D1
:1034800021303105E9F02115310579F0223031057F
:10349000F9F02330310509F0B8C0E8E0F3E1E49138
:1034A0008E2F90E0E8E0F3E107C0EAE4F3E1E49175
:1034B0008E2F90E0EAE4F3E1009709F4A6C0A2CFD2
:1034C000E4E3F3E1E4918E2F90E0E4E3F3E1F4CF61
:1034D000E6E2F3E1E4918E2F90E0E6E2F3E1ECCF57
:1034E0008330910508F091C0880F991FFC01E057C7
:1034F000FE4F0190F081E02D89E090E083CF82E1E2
:1035000090E0E6EFF2E17ECF8091FE03882309F49C
:103510005ACF853009F457CF8091E80083FD53CF0F
:103520008091E80082FD82CF8091E80080FF78CF13
:103530009091F3008091F2002115310519F0883047
:10354000910550F041E0089709F040E08091E800D3
:103550008E778093E80064CF44914093F1003196D8
:10356000215031090196E8CF803809F04EC0809192
:10357000E800877F8093E8008091FF038093F1004B
:1035800092CE811142C0109102041230F0F5809168
:10359000E800877F8093E8001093FF030E94EC0C03
:1035A000112311F084E005C08091E30087FDFACF7C
:1035B00081E08093FE0342E061EC81E00E940B0D0C
:1035C00042E261EC84E00E940B0D42E261EC82E099
:1035D0000E940B0D42E260EC83E00E940B0D809193
:1035E000FE0313C080910204813079F481E09330AE
:1035F00009F080E08093FD031092E9008091E800DB
:10360000877F8093E8000E94EC0C8091E80083FFA4
:103610000AC08091E800877F8093E8008091EB00EA
:1036200080628093EB00AA96E3E00C94E2311F9253
:103630000F920FB60F9211242F933F934F935F93E6
:103640006F937F938F939F93AF93BF93CF93DF93AA
:10365000EF93FF93D091E900DF708091EC00C82FC9
:10366000C17080FDC0E81092E9008091F000877F72
:103670008093F00078940E944E181092E900809197
:10368000F00088608093F000CD2BCF70C093E900EC
:10369000FF91EF91DF91CF91BF91AF919F918F916A
:1036A0007F916F915F914F913F912F910F900FBE3E
:1036B0000F901F9018950E9438182FEF84E39CE01C
:1036C000215080409040E1F700C0000088E19AE07E
:1036D0000FB6F894A895809360000FBE9093600099
:1036E000FFCF882341F08095909122038923809316
:1036F00022030E945E170895882339F090912203D7
:10370000982B909322030E945E170895882321F03E
:103710000E9492100E945E170895882339F09091BC
:103720003902982B909339020E945E1708958823DE
:1037300009F44DC0823879F40E94440E81FF47C0DD
:1037400089E30E94CB100E945E1789E30E94A010BB
:103750000E945E170895833859F40E94440E80FF3A
:1037600036C083E50E94CB100E945E1783E5EECF42
:10377000843859F40E94440E82FF29C087E40E94D5
:10378000CB100E945E1787E4E1CF9CEF980F913A2F
:10379000E8F290E2980F983050F4877091E001C001
:1037A000990F8A95EAF7892F0E949210D1CF9BE555
:1037B000980F933028F490E080E00E942E0E089538
:1037C000885A873120F490E080E00E94180E089516
:1037D000CF93C82F8823C9F08238C9F40E94440EC1
:1037E00081FD13C089E30E94CB100E945E172FEF6A
:1037F00081EE94E0215080409040E1F700C000004D
:1038000089E30E94A0100E945E17CF91089583382B
:10381000A1F40E94440E80FDF8CF83E50E94CB10F6
:103820000E945E172FEF81EE94E02150804090407F
:10383000E1F700C0000083E5E4CF8438A1F40E94E2
:10384000440E82FDE2CF87E40E94CB100E945E17F7
:103850002FEF81EE94E0215080409040E1F700C0CE
:10386000000087E4CECF8CEF8C0F813A88F58091F1
:103870003201882301F18091D40387FF1CC0EC2F13
:10388000E695E695E695F0E0E856FE4F828190E0F9
:103890004C2F477021E030E002C0220F331F4A95C1
:1038A000E2F782239323892B79F08C2F0E94A010BA
:1038B0000E945E1709C0EAE9F1E08191C817A9F3F7
:1038C00021E0E03AF207C9F78C2F0E94CB109BCF82
:1038D00080E28C0F883068F4C77021E030E001C0CE
:1038E000220FCA95EAF780913902822B8093390220
:1038F0008ACFEBE5EC0FE33040F4F0E0E05CFE4F04
:10390000808190E00E942E0E80CFC85AC73108F007
:103910007CCFEC2FF0E0EE0FFF1FED5BFE4F8081C0
:1039200091810E94180E71CF1F93CF93DF93182FB0
:10393000D0E0C0E0893311F4C0E5D0E0812F0E94CF
:10394000E81B209739F4812F0E94971BDF91CF91BC
:103950001F9108958FE99FE00197F1F700C00000E3
:103960002197EFCF0F931F93CF93DF93C62FD42FC1
:10397000022FFC0182818823A9F060930B040E942E
:10398000A81690930A0480930904C77081E001C0CF
:10399000880FCA95EAF70E948D1BDF91CF911F9186
:1039A0000F91089580910B04681332C0809109042F
:1039B00090910A040E949916883C910548F510E2FE
:1039C0001D0FCD17B9F080E28C0F883040F4C7701E
:1039D00081E001C0880FCA95EAF70E94861B183063
:1039E00048F481E09D2F977001C0880F9A95EAF7FF
:1039F0000E948D1B802F0E94941C183070F6D77087
:103A000081E001C0880FDA95EAF70E94861BC5CFD6
:103A1000C77081E001C0880FCA95EAF7F6CFB0E021
:103A2000A0E0E5E1FDE10C94BF31EC018AE0A82EB5
:103A30002881222309F48FC02130C9F599818A8118
:103A4000913021F422960E94941C05C0923029F4F2
:103A500022960E94E81B2196EBCF933021F4229608
:103A60000E94971BF8CF943011F02196F4CF229644
:103A700030E020E0AE014F5F5F4F8053990B8A30FA
:103A8000910550F02150310930F38FE99FE0019703
:103A9000F1F700C00000F6CFA29EB001A39E700D0A
:103AA00011249C01260F371F8981EA01E3CFE22F01
:103AB000F0E0E55DF04FB490822F8695869586956F
:103AC00090E0FC01E55EF04FE4902770F12C022EAF
:103AD00002C0F594E7940A94E2F731E0E322FF2470
:103AE000FC01E55FF04FC490D12C022E02C0D594AA
:103AF000C7940A94E2F731E0C322DD24FC01E550CB
:103B0000F14F049110E002C0159507952A95E2F750
:103B100001701127E114F10419F081EE0E94E81BF5
:103B2000C114D10419F086EE0E94E81B8B2D0E946F
:103B3000941CC114D10419F086EE0E94971BE11465
:103B4000F10419F081EE0E94971B0115110509F48B
:103B500082CF8CE278CFCDB7DEB7EAE00C94DB31D0
:103B60009091D50392FF10C098E0899F9001112495
:103B7000622B609318020E9427180E94A816909347
:103B800017028093160208950E9427180895A9E14C
:103B9000B0E0EDECFDE10C94B731498B5A8B6B8BA7
:103BA0007C8B8D8B6111109222031D861E861F86D1
:103BB000188A85E0FE017196DE01199601900D923A
:103BC0008A95E1F78091D50382FF1CC00E94A81658
:103BD0002091160230911702821B930B8838934173
:103BE00020F08091180282FFEBC10E94A81620915C
:103BF0003A0230913B02821B930B8838934110F0BC
:103C00000E9487108C859D85892B31F089859A8546
:103C100089238F3F09F0C0C129853A854B855C8592
:103C20006D857E858F8598890E94B727C3C048EF30
:103C3000C4164CE5D40629F4882379F00E947D2827
:103C4000EBCF69EFC6166CE5D60639F4882329F068
:103C5000809131018111F2CFAFC105E813E0E12C71
:103C6000B12CA12C88248394912C2EEF522E442425
:103C70004394F8014081518166246A94762C20E0B7
:103C8000822F90E0FC01EE0FFF1FE40FF51F608113
:103C900071816115710531F0C616D70609F43C0132
:103CA0002F5FEECFF12CFFEF6F167F0609F444C0B3
:103CB000F8014481F09031018F2D411180E0F82FFF
:103CC000F170FF2EF801258086819B85992309F4E8
:103CD000F2C0FF2009F4EFC0211014C0A401062C8B
:103CE00001C0440F0A94EAF7842B86838091200355
:103CF00090912103C29730F462E370E07093210346
:103D000060932003C40102C0880F991F2A95E2F72F
:103D10000197F80126812817190671F48091C703CD
:103D20009091C803009709F449C00E949916C3975F
:103D300008F444C0F8014482EF28FFEFAF1ABF0A2D
:103D4000095F1F4F28E0A216B10409F092CF8B85BE
:103D5000882309F40CC1EE2009F409C10E94A816B9
:103D60009093C8038093C70380912403883010F593
:103D700091E0980F9093240398E0FE013996DE01BC
:103D8000119601900D929A95E1F73CE0839FC00156
:103D900011248B5D9C4F28E0FE013196DC010190DF
:103DA0000D922A95E1F72FEF3FEFFC013187208735
:103DB000D386C2866996E2E10C94D3318091C50323
:103DC0005091C603982FF0E0E0E0851314C0909363
:103DD000C5030E171F0709F4AFCF90E0FC01EE0FEB
:103DE000FF1FE354FC4FB182A08201968370992794
:103DF0008093C603A1CF282E312CF101EE0FFF1FB7
:103E0000E354FC4F20813181F7E0F29FD001F39F12
:103E1000B00D1124AB57BC4F2D913C911197398FA8
:103E2000288F40E020E030E0E32FF0E0EE0FFF1FAE
:103E3000688D798DE60FF71F6080718061147104C1
:103E4000E1F0F8010190F081E02DFF8BEE8B20E096
:103E500005C06616770609F44F2D2F5FE22FF0E0BC
:103E6000EE0FFF1F6E897F89E60FF71F608171815A
:103E70006115710571F73F5FD7CF4423C9F0F80191
:103E8000231708F0FD014482E017F10721F4909315
:103E9000C503F42E51CF981305C0EA17FB0711F4A0
:103EA0009F5F937091012F5F3F4F822F83708DCF63
:103EB000F0E0E0E0F7CF90E0211020C0B40102C0B4
:103EC000660F771F2A95E2F79B012150310982176F
:103ED000930731F4442309F448C0C5010E94510EF0
:103EE000C401062C01C0880F0A94EAF7982F909518
:103EF000F801868189238683F22C1ECF9C01062C33
:103F000002C0359527950A94E2F7A901417055271B
:103F1000BC016150710986239723892B11F5452B2C
:103F200001F1F80182819381892BC1F01B821C82EF
:103F30001D821E8259825A820E94A8168160582FC3
:103F40009D838C83F801828193818F839887298157
:103F50003A814B816D817E810E94B727F8011582DD
:103F6000BFCFF22FF1702F2EBBCF2F2CB9CF909156
:103F7000C5038091C603981731F00E948C28EE206B
:103F800009F44ACE17CF0E9427281092C803109236
:103F9000C7030E947F0EF3CF61E0CE0109960E9415
:103FA00096146C018B85F7EFCF16FCE5DF0609F060
:103FB0003ECE882309F451CE81E0809331012CCE8E
:103FC00082E00E94EF1711CEA5E0B0E0EAEEFFE13B
:103FD0000C94C5318C01909317038093160301153F
:103FE00080E21807C0F4802F0E94971BC8010E942E
:103FF00074119801205E31092830310518F001153F
:10400000110531F40E94861B2596E4E00C94E13101
:104010000E94711BF9CF80EF89838A831B820E94E3
:10402000A8168160782F9D838C8349815A816B818A
:104030008D810E94C71DE8CFA5E0B0E0E2E2F0E28A
:104040000C94C5318C0190931703809316030115CE
:1040500080E21807C0F4C8010E9474119801205E24
:1040600031092830310518F00115110549F40E9475
:104070008D1B802F0E94E81B2596E4E00C94E13113
:104080000E947C1BF6CF80EF89838A8381E08B833B
:104090000E94A8168160782F9D838C8349815A8164
:1040A0006B818D810E94C71DE7CFA4E0B0E0EBE5F6
:1040B000F0E20C94BE316C01FC0183819481892B68
:1040C00031F08081918189238F3F09F0BDC424960E
:1040D000EBE00C94DA3190E080E00F3F110511F035
:1040E00008F0CDC4C801CBC4011584E0180709F459
:1040F00068C0C8010E943D35811101C0FA940F5F6C
:104100001F4FE7C48BEF8E0D833050F5C801039627
:10411000FB825C01FF2009F413C5580124E0A20EC4
:10412000B11C0E943D358C83882309F409C50B819D
:104130001C8101303FEF130710F0102F002746E0DD
:10414000E41651F057E0E51619F0C8010E941C2052
:10415000C8010E94E41FF4C4C8010E941C20F0C4DE
:1041600084E0E812EDC4580194E0A90EB11CC80126
:1041700003960E943D35FF2021F1882311F18150E3
:10418000990B989E9001999E300D1124EF2DE150CE
:10419000FF0BCF01820F931F019708F4D1C4EFE901
:1041A000FFE03197F1F700C00000F6CFCE01019695
:1041B0000E940F1D5701C4C481E00E9427180E946D
:1041C000D61780911802877009F481CFF601828199
:1041D000882309F47CCF8091D50382FF78CF82E0D9
:1041E0000E94EF1774CF81E00E94E217E8CF2223EC
:1041F00009F428C482E0E1CF053FECE51E0709F48D
:1042000061C008F45BC0063F3CE5130709F45EC0DB
:10421000222309F497C410920B0403304DE51407D0
:1042200008F05BC00A3F5CE5150730F4C801825016
:104230009C45449708F05BC00E94DF149093D5031F
:104240008093D4030131ECE51E0709F428C108F07E
:10425000A2C009302CE5120709F40FC108F070C0A4
:1042600005304CE5140709F400C108F055C00330CF
:104270008CE5180709F4EFC008F0F3C08091D4036F
:1042800081600230ECE51E0709F4E8C06091D403B8
:104290001091D50384E090E00E944B35612F82E2BB
:1042A00090E00E944B350E9438188BCF27E245EEF4
:1042B00065EEBBC326E241EE60EEB7C327E245EEF2
:1042C00064EEB3C326E241EE62EEAFC327E245EEF1
:1042D00066EEABC328E241E0EBCF01368DE518076F
:1042E00009F4AACF053A9DE5190709F4A5CF0631CF
:1042F000FCE51F0709F033C4809139028A7A91E006
:1043000009F490E09093B8018111F3C089E20E9412
:10431000CB100E945E1755CF8091D4038062073086
:10432000FCE51F0709F49AC08091D403806108302E
:104330002CE5120708F492C08091D40380648EC0EB
:104340008091D4038B7F0D303CE5130709F486C0C0
:1043500070F48091D4038E7F0B305CE5150709F46F
:104360007DC008F490C08091D4038D7F77C0809188
:10437000D4038F7E0F309CE5190709F46FC080913C
:10438000D403877F0031ECE51E0708F467C08091F5
:10439000D4038F7D63C00D3FFCE51F0709F47BC08C
:1043A00058F505313CE5130709F483C098F4809172
:1043B000D403837F03315CE5150709F44FC008F48B
:1043C00072C00E9438189091D403892F97FB87F907
:1043D000805844C00B3F9CE5190709F44AC008F017
:1043E00056C08091D50381600A3FFCE51F0709F0A4
:1043F0004DCF8093D5034ACF01302DE5120709F444
:1044000064C0C0F48091D5038C7F0F3F4CE5140746
:1044100081F38091D503836001155DE5150748F3AD
:104420008091D503982F909591708E7F892B90FB6A
:1044300081F9DFCF01368DE5180709F44CC0053A44
:104440009DE5190709F44EC00230EDE51E0709F09D
:104450001DCF60E03BC08091D40382608093D40381
:1044600015CF8091D4038460F9CF8091D403886004
:10447000F5CF8091D5038260BCCF0E94381880911F
:10448000D4038068EBCF8091D4038C60E7CF809118
:10449000D5038E7FAECF8091D5038D7FAACF80913B
:1044A000D4038F7BDBCF0E9438188091D4038F77A1
:1044B000D5CF8091D40382FB992790F921E09227F0
:1044C00090FB82F990FB83F9C9CF61E08EE090E028
:1044D0000E944B35DBCE9091D403892F8F7E94FFC1
:1044E0008061BCCF9091D403892F8E7F90FF816033
:1044F000B5CF85E30CCF85E32FC30E9438182FEF8B
:1045000034E34CE0215030404040E1F700C000006F
:104510000E94FB0D8091D50382FB882780F991E0F2
:1045200089270E940B18F601868197810097C1F1B7
:104530000E940A0F8C01F601E280B580B2943FE040
:10454000B322809118028770C1F0AE2CEE20B1F03A
:10455000812F807F803421F080E2800F883068F0E6
:104560008091D50382FF09C082E00E94EF178091FD
:1045700018028770AA24A3948111A12C912E9294E1
:104580002FE09222FBE0F91508F488C0E92DF0E055
:10459000ED56FA4C0C944F3281E0C3CF80E0C1CF8E
:1045A000828100811181882369F0C8010E9433143F
:1045B000F82E682FC8010E943D11B8018F2D0E946E
:1045C0001614B6CFC8010E940911F82EF6CF212F7C
:1045D0002F70F22E107F19F0F29490EFF922EE2056
:1045E000B9F0FF2069F080E2800F883010F00111EF
:1045F00009C080913902F82AF09239020E945E17B0
:10460000802F4AC080912203F82AF0922203F6CF2D
:10461000802F0E94971BFF2009F440C080E2800F8A
:10462000883010F0011104C08F2D0E94921006C036
:10463000F09480912203F822F09222030E945E17E8
:104640002DC0312F3F70F32E107F103219F0F294ED
:1046500080EFF822002381F0013009F494C0EE20AD
:1046600009F49DC0BB2009F46AC0F601858180FF72
:10467000C7CF8F70858363C08091D50382FD38C01A
:10468000EE2081F1FF2039F080913902F82AF09272
:1046900039020E945E1780E00E94E81B492D4850B5
:1046A000550B4430510510F40E94440EAA20A9F085
:1046B0008091180280FD11C0F601128285958595C2
:1046C00085950E942718C6010E94552080911802E6
:1046D0008595859585950E94E21760E0C6010E9448
:1046E0009614F5CC80E00E94971BFF20B9F29CCF76
:1046F000EE2049F1B11004C080913C028F2920C006
:1047000041E0B41210C082FFC9CF80913C02F82A68
:10471000F81621F20E94A81690933B0280933A0269
:10472000F0923C02BBCF55E0B512E6CF0E94871055
:104730009091B9018F2D892B89138093B9018F2D09
:104740000E948D1BABCFB11003C00E94871012C016
:1047500081E0B81213C0809139028F2109F49ECFF5
:104760000E9487109091B9018F2D8095892389131C
:104770008093B9018F2D0E94861B90CF95E0B916CA
:1047800009F48CCFE2CFEE2029F0E5E0EB1508F438
:1047900085CFD5CFF4E0FB1508F480CFEBCFBB205D
:1047A00049F3093349F4FFEF27EE33E0F15020409D
:1047B0003040E1F700C00000802F0E94971B6ECFB1
:1047C000812F86958695837061F0813009F066CFE0
:1047D000C8019370E11002C090E080E00E94180EC2
:1047E0005DCFC8019370E11002C090E080E00E94AC
:1047F0002E0E54CF812F837089F5E1104FCF402FBB
:10480000429546954770440F440F802F8F70042EB9
:1048100001C0880F0A94EAF7202F207104FF07C017
:104820002FE030E001C0220F4A95EAF72095169557
:1048300016951370123069F050F430913D0211302A
:1048400029F0822B83230E94331828CF832B822BBD
:10485000FACF282B80913D028227F5CF8695EE2056
:1048600011F0812F8170882309F418CF402F4295D1
:1048700046954770440F440F802F8F70042E01C05F
:10488000880F0A94EAF7202F207104FF07C02FE059
:1048900030E001C0220F4A95EAF72095169516954B
:1048A0001370123069F050F430910804113029F07F
:1048B000822B83230E94D117F1CE832B822BFACF38
:1048C000282B809108048227F5CF1F70EE2029F055
:1048D000812F0E942718802F33CF802F0E94861BA4
:1048E000812F0E94E217DACE023F89F160F4003F87
:1048F000B9F0013F81F0EE2009F464C0B11080CE20
:10490000812F8F7128C0033F49F1043FA1F78091A7
:10491000D50382FD2FC0812F8F71EE2011F31BC0B4
:10492000EE2081F044E04B1508F4B8CE1F7181E011
:1049300090E0012E01C0880F0A94EAF790910804D4
:104940008927B8CF55E05B1508F4A8CEEFCF812FAB
:104950008F71E110C6CF0E942718A0CE80E0EE2014
:1049600009F4A8CF1F7181E0012E01C0880F0A94BD
:10497000EAF7A0CFEE20C9F080911802877084304A
:1049800041F40E949910812F8F710E94E217A12C8F
:1049900085CE84E08B15D8F31F71812F0E942718D4
:1049A00063E0812F0E94B01DF2CF94E09B1530F49C
:1049B0000E94991064E0812F8F71F4CF81E00E94F2
:1049C000EF17E5CFBB2059F0093309F0F5CEEFEF33
:1049D000F7EE23E0E150F0402040E1F7EBCE812FED
:1049E0008F717FCF0031FFE51F0709F4E5CB01315F
:1049F0003FE5130709F4FBCB033F3CE5130709F43C
:104A000059CC08F0F9CB083D5CE5150709F44ECC0C
:104A1000093D8CE5180709F45DCC073D9CE51907B5
:104A200009F0F6CB26E241EE61EEC6010E94B21C0F
:104A3000C8CB00314FE5140709F4D5CB01315FE550
:104A40001507D1F682E0D0CB61E0C6010E94961432
:104A50008C01F6012281222361F3C8019056811551
:104A6000F0E29F0750F0905E811530E1930728F047
:104A7000915C81159F4108F02ECBC8019927AC01AC
:104A8000445051094432510518F08B970E9780F429
:104A9000E0915802F0E0EE0FFF1FE35AFD4F8081D6
:104AA00091818F3F5FE7950719F00196918380838D
:104AB000C80182519F45409708F094CF8FEF93E053
:104AC0000E943D3581117DCB5EEEF52EF00E07EF95
:104AD00011E0F11009CB19821A821B821C829924E1
:104AE0009A9478019FEFE91AF90AC8010E943D35AE
:104AF00089831A82882309F464CB813009F056CB6C
:104B00005801E2E0AE0EB11CC7010E943D35E82E0F
:104B10008A83882309F455CBC5010E943D35F82EC0
:104B20008FEF8E0D833008F0EDCA5801F3E0AF0E21
:104B3000B11CFB82FF2021F0CE0101960E940F1DC7
:104B40008501CFCF0631FCE51F0709F0ECCC809141
:104B5000B8018111D0CC89E20E94A010DACB0A35CD
:104B60002DE5120709F418CD68F401154CE514077A
:104B700009F4C3CC0E3D1C4509F0D5CC0E9431157B
:104B80000E945B1B0C358DE5180709F4C3CC08F4B3
:104B900005CD073A1D45A1F3C6CCCF93DF93809195
:104BA000D101807F09F049C08091CE01882309F4AA
:104BB00044C080911502D091D4016091CC017091D4
:104BC000CD01A091CF01B091D001C62FC723D81736
:104BD000A1F190E0109711F0CF3F19F40196877082
:104BE000F6CF9C0143E0220F331F4A95E1F7F9010C
:104BF000EB52FE4F41814713F1CF40814613EECF78
:104C000042814111EBCF438154814A1B5B0B483CED
:104C1000510520F78091D1018F7080618093D1017F
:104C2000F901E652FE4F80818F70806180838CECA9
:104C300091E00E9455200E94FF10DF91CF910895CE
:104C4000A5E1B0E0E6E2F6E20C94BF318C0185E02C
:104C5000F801DE01519601900D928A95E1F7F80175
:104C6000E2806CECA62E61E0B62E6091CF017091CF
:104C7000D0016115710509F45CC19091CC0140919E
:104C8000CD01892F84238F3F09F453C120813181C5
:104C9000C380D480F090CE01F601E61BF70BFF2015
:104CA00009F411C18091D101582F507FE83CF105E2
:104CB00008F0C4C0511175C0FE2C43131EC09213DE
:104CC0001CC06091D2017091D301F80146815781D7
:104CD0006417750791F4E11010C08F7080618093A4
:104CE000D101C5010E9455208091D101F801858331
:104CF0008F2D6596EAE00C94DB31C114D10429F0C4
:104D0000822F83238F3F09F02FC180E0F82FF170AD
:104D1000DF2E80FF3CC0809115024091D4018413A6
:104D200015C0298B3A8B89899A890E946214292F90
:104D300022952F702230F8F0243020F59F70F9F082
:104D4000F8019581907FD9F4D12C1FC090E0FC012F
:104D500053E0EE0FFF1F5A95E1F7EB52FE4F5181E2
:104D6000351306C05081251303C05281E5120FC0D0
:104D700001968770D4CF9F7011F0882329F3805E4D
:104D8000883010F3C8010E945520FD2CB1CFEE20D1
:104D900009F4AECF8091D10181608093D101F12CD3
:104DA000A7CF43131BC0921319C04091D201509159
:104DB000D301F801268137814217530779F4E110B6
:104DC0000DC08583C8010E94552088E0F801ACEC35
:104DD000B1E001900D928A95E1F78ACFC8010E9457
:104DE0006F14882339F1EE2029F18091D1018032AE
:104DF000A0F02091CC013091CD013A8729871B8604
:104E0000DD86CC868E878091D2019091D301988BDC
:104E10008F87CE0109960E94552088E0F801ACECFE
:104E2000B1E001900D928A95E1F70E94CD25FF2413
:104E3000F3945ECFC8010E945520F9CF51110AC0EA
:104E40008CEC91E00E94552088E0F50111928A9542
:104E5000E9F7A5CF431318C0921316C04091D201B1
:104E60005091D301F801268137814217530761F42D
:104E7000E1100AC08583C8010E94552088E0F50131
:104E800011928A95E9F734CFC8010E946F148823E4
:104E900089F2EE2079F28091D101803208F4BDCF01
:104EA0002091CC013091CD013A8329831B82DD8290
:104EB000CC828E838091D2019091D30198878F8389
:104EC000CE010196A8CFE83CF105C0F6FE2CEE20FD
:104ED00009F4B0CF43131FC092131DC02091D2011B
:104EE0003091D301F801868197812817390799F409
:104EF0009091D10190FD69CF907F09F466CF8091A8
:104F0000D1018583903F09F45DCF982F907F905F0A
:104F10008F70892B56CFC8010E946F1481117DCFED
:104F20008091D10181608093D101C8010E945520F8
:104F3000DFCEEE2009F47ECFC8010E946F14F82E58
:104F4000882309F477CF88E0F801ACECB1E0019058
:104F50000D928A95E1F78091CC019091CD010E944C
:104F600062140E94CD25C4CE81E08E25CFCEA0E173
:104F7000B0E0EDEBF7E20C94C73129873A874B8715
:104F80005C876D877E878F87988BCE0109960E94FC
:104F90002026811112C088E0FE013996DE011196AB
:104FA00001900D928A95E1F78C859D85892B29F0DA
:104FB00089859A8589238F3F81F58091150290918B
:104FC000D401891317C06096E2E00C94E33193E0BA
:104FD000AA0FBB1F9A95E1F7AB52BE4F98E0FE01B6
:104FE000319601900D929A95E1F78093D4010E9439
:104FF000FF10E3CFB8E08B9FC00111248B529E4F6E
:105000000E9420268823F9F28091150290E00196F3
:105010008770992780931502D0CFA091D401B0E07A
:10502000CD0101968770992720911502281719063E
:1050300071F60E9438181092D4011092150288E07F
:10504000ECECF1E0DF011D928A95E9F7B6CF0F9302
:105050001F93CF93DF9380912403E0912303CCE04F
:1050600081111AC0DF91CF911F910F910895D1E066
:10507000DE0FD09323030E2F10E0EC9FF0011124DC
:10508000EB5DFC4F83819481892B29F08081918194
:1050900089238F3F51F4ED2F80912403E81738F3D3
:1050A0001092240310922303DDCFC09FD001C19F33
:1050B000B00D1124AB5DBC4F16968D919C91179746
:1050C000892B29F418968D919C91019651F4208199
:1050D00031814281538164817581868197810E94EB
:1050E000B727C09FF001C19FF00D1124EB5DFC4F6D
:1050F0001482138210922203CECF1092C803109212
:10510000C703109231018091C6038093C5030E94AA
:105110007F0E0E9427280895B0E0A0E0E2E9F8E2BF
:105120000C94B831C091C50397E0892E01E010E0DE
:105130002CE0322E3EEF932E442443948091C603FC
:105140008C1309C00E9427280E947F0ECDB7DEB7BE
:10515000E1E10C94D431D0E0FE01EE0FFF1FE354E7
:10516000FC4F80819181889ED001899EB00D1124D1
:10517000AB57BC4F14962C911497211158C05090E6
:105180002403E5E2F3E030E020E0712C5D01251519
:1051900008F04BC0E284F384D501CD90DC906FEF32
:1051A0007FEF612C462D50E0DA01AA0FBB1FAC0D3A
:1051B000BD1D0D90BC91A02D109731F0EA16FB0695
:1051C00009F4BA016394EECF6F3F7607A9F1D801D5
:1051D00002C0AA0FBB1F6A95E2F77A2AB801062C13
:1051E00002C0660F771F0A94E2F7AB0141505109E4
:1051F00074161506F9F4329EF001339EF00D112459
:10520000EB5DFC4F889ED001899EB00D1124AB57F9
:10521000BC4F12962D913C91139737832683908231
:1052200091829187808715964C920E94510E21960B
:10523000C37084CF148213822F5F3F4F3C96A7CF59
:105240001F921FB61F9211248F939F93AF93BF930A
:105250008091CF03811113C08091D0039091D1032D
:10526000A091D203B091D3034196A11DB11D8093AB
:10527000D0039093D103A093D203B093D303BF91F3
:10528000AF919F918F911F901FBE1F901895CDB722
:10529000DEB7E6970FB6F894DEBF0FBECDBF85B779
:1052A000806885BF85B7806885BF84B7877F84BFE6
:1052B0000FB6F894A8958091600088618093600093
:1052C000109260000FBE80E890E00FB6F8948093D3
:1052D0006100909361000FBE8EEA9EE0909397016B
:1052E000809396010E94ED140E94720C0E943D0D65
:1052F0008091E20084608093E20078948091FE03C4
:105300008823A1F01091E9001F709091EC00892F83
:10531000817090FD80E8182B1092E9008091E800E0
:1053200083FD0E944E181F701093E90082E084BD37
:1053300093E095BD9AEF97BD80936E000E94C614CE
:10534000811102C00E94D71301E711E049E7E42E62
:1053500041E0F42ED8018D918D018F3F11F00E9414
:10536000B00EE016F106B1F709E711E03FE7E32ED2
:1053700031E0F32EF80181918F018F3F11F00E94EF
:10538000B00EE016F106B1F788E0EEEBF2E0DF01D7
:10539000282F1D922A95E9F7E1E4F2E0DF011D9242
:1053A0008A95E9F790E080E00E944535883E9E4F5F
:1053B00021F40E94C614811102C00E94311582E0BE
:1053C00090E00E943D35809349020E94DF14909343
:1053D000D5038093D4030E94B416EFEFF6E721E0E3
:1053E000E150F0402040E1F700C000000E94B416F8
:1053F0008091BE0280FF08C06FEF7FEF90E080E0F9
:105400000E9469350E94FB0D83E090E00E943D35CB
:105410000E9433181092B90280E880930C040E9415
:10542000B4306DE070E08EEB9FE00E945312892B48
:10543000E9F58091B90263E070E081FD8FC28BEBEA
:105440009FE00E945312892B89F56DE070E08BEA92
:105450009FE00E945312892B49F50E940C0E605A5E
:1054600075418F4F9F4F60931A0370931B03809376
:105470001C0390931D03EFE0F4E080E092E0DF0175
:105480009C011D9221503040E1F7F0931606E09305
:1054900015068FEF9FEF90930E0480930D0481E02B
:1054A00080931F0380931E031092BA0280E091E064
:1054B0009093CC038093CB038091FE0300E112E133
:1054C000853009F488C20E94B416D82E81110E943A
:1054D0000C0EAEEBB2E0EAE4F2E010E000E0302FB8
:1054E0008D919191981709F485C2292F282790E072
:1054F000FF24F3944F2D422309F477C29BA73CA7C6
:105500008F2191E009F490E09DA70E94A816816088
:10551000782F9FA78EA74BA55CA56DA58FA50E9490
:10552000C71DF801E65BFD4F8081F826F08280916F
:105530003101882301F18091C7039091C80300973E
:10554000D1F00E9499162091200330912103281751
:10555000390788F49091C5038091C603981709F420
:1055600060C20E948C281092210310922003109296
:10557000C8031092C70380905D0290905E02092CD0
:10558000000CAA08BB0880910C0190E0EDE5F2E068
:1055900021E030E03296821793070CF04BC28091E5
:1055A000590290915A02A0915B02B0915C026FB7D0
:1055B000F8944090D0035090D1036090D203709043
:1055C000D3036FBF481A590A6A0A7B0A10910C016B
:1055D00039EC431651046104710414F180915802AE
:1055E00090E0019669E170E00E94FA3180935802E0
:1055F000880F991FFC01E35AFD4F11821082812F01
:10560000183108F087E18F5F80930C010E940C0E27
:105610006093590270935A0280935B0290935C02EC
:1056200042E084169104A104B1040CF410C2A0E677
:10563000BAEEA50194010E945C324B015C0188EC3A
:10564000189F90011124032E000C440B550B240DC0
:10565000351D461D571DA5E0B0E00E945C329B0140
:10566000AC01C501B4010E940E3229013A0191EF4B
:1056700049165104610471042CF000EF402E512CA6
:10568000612C712C8091540290915502A091560288
:10569000B09157022FB7F8948090D0039090D10327
:1056A000A090D203B090D3032FBF881A990AAA0AF8
:1056B000BB0AA5E68A169104A104B10484F00E94F5
:1056C0000C0E60935402709355028093560290938F
:1056D0005702809193028093530240925202C090ED
:1056E0005302A0915202AC19BB0BA50194010E9478
:1056F000673224E630E040E050E00E943032C20ED3
:10570000C092930280911F03882309F4E2C080E0D5
:105710000E94660C4091950250919602609197020A
:10572000709198022FB7F8948091D0039091D10393
:10573000A091D203B091D3032FBF841B950BA60B6E
:10574000B70B8B3F9105A105B10508F466C0CC20CD
:1057500009F463C080E00E94660C0E940C0E609306
:10576000950270939602809397029093980280918D
:10577000940290E09C01220F331FBDE2BC1508F09B
:105780006AC1245E3E4FF901A080B180019666E0B7
:1057900070E00E94FA3180939402F12CE12CB8E47D
:1057A0009B2EC7018F77992700910E0110910F0151
:1057B0008631910574F08017910738F09801285BC5
:1057C0003F4F2817390708F04CC1B70180E00E940D
:1057D000900EBFEFEB1AFB0AE1E0EE16E2E0FE06E8
:1057E00001F7C8014697FDE2FC1508F053C1839705
:1057F00028F080910D01819580930D0180910D011C
:10580000082E000C990B080F191F003811050CF019
:105810003BC110930F0100930E01809193021F92E0
:105820008F938BE391E09F938F938FE892E09F9308
:105830008F930E949B3281E00E94660CEBECFFE0AC
:1058400084910F900F900F900F900F900F908F01F9
:10585000811126C182E00E94660C0FE812E0D80197
:105860000D900020E9F78D0101501109FFE8EF2E9E
:10587000F2E0FF2EE016F10608F419C180911F0333
:10588000882371F020910D0430910E04211531050B
:1058900039F08091BA0261E070E0882309F40EC10A
:1058A00080911E038823A9F00E940C0E00911A0318
:1058B00010911B0320911C0330911D03601B710B81
:1058C000820B930B6F3F7F4F8F4F9F4710F40E94C7
:1058D0007D12D1100E9498120E94440E9091BB023A
:1058E00089138093BB028091FE03843009F0E4CDDC
:1058F00083E08093E9008091E80082FFDDCD809114
:10590000E80090E085FF06C00E94910C882309F40E
:10591000A0C191E08091E8008B778093E800992303
:1059200009F4CACD0091180310911903898101155A
:10593000110509F4ABC18E3F09F0EBC18A818330B8
:1059400020F08550833008F0E4C1EA81EE3008F0A1
:10595000E0C1F0E0E156FA4C0C944F3288EB9FE046
:1059600070CD8091FE03843031F10E947D1210923F
:10597000CF0388E190E0A0E40FB6F894A895809357
:1059800060000FBEA093600083B7817F846083BFF7
:1059900083B7816083BF7894889583B78E7F83BFF8
:1059A0000FB6F894A895809160008861809360009C
:1059B000109260000FBE8091FD03882361F00E9469
:1059C000B416EEEBF2E081918111AFC326EC32E028
:1059D0002E173F07C1F78091FE03853009F4C1CF30
:1059E0000E9438180E94440E6ECD9F5FFF0C9630C7
:1059F00009F080CD0F5F1F4F0830110509F06FCD02
:105A00008FEF88AB89AB1AAA0E94A8168160782F05
:105A10009CAB8BAB48A959A96AA98CA90E94C71D48
:105A200086CD0E9427281092C8031092C7030E94B7
:105A30007F0EA1CD40815181052E000C660B770BA6
:105A4000840E951EA61EB71E2F5F3F4FA3CD412C7F
:105A5000512C320117CE205F3E4FD901AD90BC9042
:105A600095CE9701220F232F221F330B929EF00118
:105A7000939EF00D1124801B910BE80FF91FEA0D86
:105A8000FB1D8491B701A3CEC29790930F01809321
:105A90000E01C3CE839708F4C0CE86E190E0F5CF27
:105AA0000E94A5110F5F1F4FF8018491D1CEF7011D
:105AB00081917F010E94A511DDCE8F5F082F10E03C
:105AC0007B01082E02C0EE0CFF1C0A94E2F7A9012C
:105AD0004E215F21452B89F39091B90290FD43C07F
